:020000040800F2
:1000000000500020B5120008FD0D0008FF0D00088B
:10001000010E0008030E0008050E00080000000095
:10002000000000000000000000000000070E0008B3
:10003000090E0008000000000B0E00080D0E00085D
:10004000FD120008FD120008FD120008FD12000854
:10005000FD120008FD120008FD120008FD12000844
:10006000FD120008FD120008FD120008FD12000834
:10007000FD120008FD120008FD120008FD12000824
:10008000FD120008FD120008FD120008FD12000814
:10009000FD120008FD120008FD120008FD12000804
:1000A000FD120008FD120008FD120008FD120008F4
:1000B000FD120008FD120008FD120008FD120008E4
:1000C000FD120008FD120008FD120008FD120008D4
:1000D000FD120008FD120008150E0008FD120008B0
:1000E000FD120008FD120008FD12000800000000CB
:1000F0000000000000000000000000000000000000
:0C01000000000000000000005FF808F1A3
:10010C0081F0004102E000BF83F0004330B54FEABC
:10011C0041044FEA430594EA050F08BF90EA020F29
:10012C001FBF54EA000C55EA020C7FEA645C7FEABC
:10013C00655C00F0E2804FEA5454D4EB5555B8BFDF
:10014C006D420CDD2C4480EA020281EA030382EA50
:10015C00000083EA010180EA020281EA0303362DE2
:10016C0088BF30BD11F0004F4FEA01314FF4801CB5
:10017C004CEA113102D0404261EB410113F0004FC7
:10018C004FEA03334CEA133302D0524263EB43037E
:10019C0094EA050F00F0A780A4F10104D5F1200E1C
:1001AC000DDB02FA0EFC22FA05F2801841F1000177
:1001BC0003FA0EF2801843FA05F359410EE0A5F14B
:1001CC0020050EF1200E012A03FA0EFC28BF4CF07C
:1001DC00020C43FA05F3C01851EBE37101F0004532
:1001EC0007D54FF0000EDCF1000C7EEB00006EEB3F
:1001FC000101B1F5801F1BD3B1F5001F0CD34908C9
:10020C005FEA30004FEA3C0C04F101044FEA44521F
:10021C0012F5800F80F09A80BCF1004F08BF5FEAA6
:10022C00500C50F1000041EB045141EA050130BD86
:10023C005FEA4C0C404141EB0101013C28BFB1F598
:10024C00801FE9D291F0000F04BF01460020B1FAE3
:10025C0081F308BF2033A3F10B03B3F120020CDAB6
:10026C000C3208DD02F1140CC2F10C0201FA0CF094
:10027C0021FA02F10CE002F11402D8BFC2F1200CF9
:10028C0001FA02F120FA0CFCDCBF41EA0C019040AF
:10029C00E41AA2BF01EB0451294330BD6FEA0404F8
:1002AC001F3C1CDA0C340EDC04F11404C4F12002E3
:1002BC0020FA04F001FA02F340EA030021FA04F3F5
:1002CC0045EA030130BDC4F10C04C4F1200220FA4C
:1002DC0002F001FA04F340EA0300294630BD21FA8A
:1002EC0004F0294630BD94F0000F83F4801306BF50
:1002FC0081F480110134013D4EE77FEA645C18BF44
:10030C007FEA655C29D094EA050F08BF90EA020FDA
:10031C0005D054EA000C04BF1946104630BD91EAD2
:10032C00030F1EBF0021002030BD5FEA545C05D1D5
:10033C004000494128BF41F0004130BD14F5800414
:10034C003CBF01F5801130BD01F0004545F0FE4188
:10035C0041F470014FF0000030BD7FEA645C1ABFBD
:10036C00194610467FEA655C1CBF0B46024650EAF4
:10037C00013406BF52EA033591EA030F41F4002120
:10038C0030BD00BF90F0000F04BF0021704730B5A6
:10039C004FF4806404F132044FF000054FF000017B
:1003AC0050E700BF90F0000F04BF0021704730B53C
:1003BC004FF4806404F1320410F0004548BF404211
:1003CC004FF000013EE700BF42004FEAE2014FEA66
:1003DC0031014FEA02701FBF12F07F4393F07F4F41
:1003EC0081F06051704732F07F4208BF704793F044
:1003FC007F4F04BF41F40021704730B54FF4607457
:10040C0001F0004521F000411CE700BF50EA010259
:10041C0008BF704730B54FF000050AE050EA010202
:10042C0008BF704730B511F0004502D5404261EB72
:10043C0041014FF4806404F132045FEA915C3FF4B3
:10044C00D8AE4FF003025FEADC0C18BF03325FEA50
:10045C00DC0C18BF033202EBDC02C2F1200300FA01
:10046C0003FC20FA02F001FA03FE40EA0E0021FA26
:10047C0002F11444BDE600BF70B54FF0FF0C4CF414
:10048C00E06C1CEA11541DBF1CEA135594EA0C0FC6
:10049C0095EA0C0F00F0DEF82C4481EA030621EA01
:1004AC004C5123EA4C5350EA013518BF52EA03353C
:1004BC0041F4801143F4801338D0A0FB02CE4FF0EE
:1004CC000005E1FB02E506F00042E0FB03E54FF01E
:1004DC000006E1FB03569CF0000F18BF4EF0010E16
:1004EC00A4F1FF04B6F5007F64F5407404D25FEA12
:1004FC004E0E6D4146EB060642EAC62141EA5551C5
:10050C004FEAC52040EA5E504FEACE2EB4F1FD0C06
:10051C0088BFBCF5E06F1ED8BEF1004F08BF5FEA84
:10052C00500E50F1000041EB045170BD06F0004636
:10053C0046EA010140EA020081EA0301B4EB5C04E3
:10054C00C2BFD4EB0C0541EA045170BD41F48011DB
:10055C004FF0000E013C00F3AB8014F1360FDEBF00
:10056C00002001F0004170BDC4F10004203C35DADC
:10057C000C341BDC04F11404C4F1200500FA05F35F
:10058C0020FA04F001FA05F240EA020001F0004200
:10059C0021F0004110EBD37021FA04F642EB060176
:1005AC005EEA430E08BF20EAD37070BDC4F10C04A0
:1005BC00C4F1200500FA04F320FA05F001FA04F264
:1005CC0040EA020001F0004110EBD37041F1000150
:1005DC005EEA430E08BF20EAD37070BDC4F120055B
:1005EC0000FA05F24EEA020E20FA04F301FA05F2C3
:1005FC0043EA020321FA04F001F0004121FA04F26B
:10060C0020EA020000EBD3705EEA430E08BF20EA3A
:10061C00D37070BD94F0000F0FD101F00046400074
:10062C0041EB010111F4801F08BF013CF7D041EAF6
:10063C00060195F0000F18BF704703F000465200FA
:10064C0043EB030313F4801F08BF013DF7D043EACB
:10065C000603704794EA0C0F0CEA135518BF95EA81
:10066C000C0F0CD050EA410618BF52EA4306D1D108
:10067C0081EA030101F000414FF0000070BD50EA27
:10068C00410606BF1046194652EA430619D094EAB1
:10069C000C0F02D150EA013613D195EA0C0F05D19B
:1006AC0052EA03361CBF104619460AD181EA0301EF
:1006BC0001F0004141F0FE4141F470014FF00000A7
:1006CC0070BD41F0FE4141F4780170BD70B54FF042
:1006DC00FF0C4CF4E06C1CEA11541DBF1CEA1355C2
:1006EC0094EA0C0F95EA0C0F00F0A7F8A4EB0504A4
:1006FC0081EA030E52EA03354FEA013100F088809B
:10070C004FEA03334FF0805545EA131343EA126363
:10071C004FEA022245EA111545EA10654FEA002618
:10072C000EF000419D4208BF964244F1FD0404F5D1
:10073C00407402D25B084FEA3202B61A65EB03052D
:10074C005B084FEA32024FF480104FF4002CB6EBEA
:10075C00020E75EB030E22BFB61A754640EA0C006A
:10076C005B084FEA3202B6EB020E75EB030E22BFAA
:10077C00B61A754640EA5C005B084FEA3202B6EBEB
:10078C00020E75EB030E22BFB61A754640EA9C00AA
:10079C005B084FEA3202B6EB020E75EB030E22BF7A
:1007AC00B61A754640EADC0055EA060E18D04FEA38
:1007BC00051545EA16754FEA06164FEAC30343EAD8
:1007CC0052734FEAC2025FEA1C1CC0D111F4801FA5
:1007DC000BD141EA00014FF000004FF0004CB6E79E
:1007EC0011F4801F04BF01430020B4F1FD0C88BF3D
:1007FC00BCF5E06F3FF6AFAEB5EB030C04BFB6EB48
:10080C00020C5FEA500C50F1000041EB045170BD3A
:10081C000EF0004E4EEA113114EB5C04C2BFD4EB67
:10082C000C0541EA045170BD41F480114FF0000EEB
:10083C00013C90E645EA060E8DE60CEA135594EA67
:10084C000C0F08BF95EA0C0F3FF43BAF94EA0C0F6A
:10085C000AD150EA01347FF434AF95EA0C0F7FF4DF
:10086C0025AF104619462CE795EA0C0F06D152EA33
:10087C0003353FF4FDAE1046194622E750EA410617
:10088C0018BF52EA43067FF4C5AE50EA41047FF428
:10089C000DAF52EA43057FF4EBAE12E74FEA41028B
:1008AC0012F5001215D211D56FF47873B3EB6252B6
:1008BC0012D94FEAC12343F0004343EA505311F0DD
:1008CC00004F23FA02F018BF404270474FF000006F
:1008DC00704750EA013005D111F0004008BF6FF0AD
:1008EC00004070474FF00000704700BF0348044BB6
:1008FC00834202D0034B03B118477047F00100202C
:10090C00F0010020000000000548064B1B1AD90F0F
:10091C0001EBA301491002D0034B03B118477047F8
:10092C00F0010020F00100200000000010B5064C82
:10093C00237843B9FFF7DAFF044B13B10448AFF344
:10094C0000800123237010BDF00100200000000086
:10095C00002C000808B5054B1BB105490548AFF341
:10096C000080BDE80840FFF7CFBF00BF00000000CB
:10097C00F4010020002C000810B50138092820D8FB
:10098C00DFE810F00A00200036004C00620078000E
:10099C008E00A400BA00D0006D4C0122D4E90001F5
:1009AC0000F0CEF90222D4E9020100F0C9F90322C9
:1009BC00D4E9040100F0C4F90422D4E9060100F0E2
:1009CC00BFF910BD634C0122D4E9000100F0B8F965
:1009DC000222D4E9020100F0B3F90322D4E90401A4
:1009EC0000F0AEF90422D4E9060100F0A9F9E8E719
:1009FC00594C0122D4E9000100F0A2F90222D4E9F9
:100A0C00020100F09DF90322D4E9040100F098F9E9
:100A1C000422D4E9060100F093F9D2E74F4C0122ED
:100A2C00D4E9000100F08CF90222D4E9020100F0B3
:100A3C0087F90322D4E9040100F082F90422D4E9F5
:100A4C00060100F07DF9BCE7454C0122D4E9000118
:100A5C0000F076F90222D4E9020100F071F90322C8
:100A6C00D4E9040100F06CF90422D4E9060100F089
:100A7C0067F9A6E73B4C0122D4E9000100F060F9CC
:100A8C000222D4E9020100F05BF90322D4E904014B
:100A9C0000F056F90422D4E9060100F051F990E770
:100AAC00314C0122D4E9000100F04AF90222D4E9C8
:100ABC00020100F045F90322D4E9040100F040F9E9
:100ACC000422D4E9060100F03BF97AE7274C012215
:100ADC00D4E9000100F034F90222D4E9020100F05B
:100AEC002FF90322D4E9040100F02AF90422D4E9F5
:100AFC00060100F025F964E71D4C0122D4E9000140
:100B0C0000F01EF90222D4E9020100F019F90322C7
:100B1C00D4E9040100F014F90422D4E9060100F030
:100B2C000FF94EE7134C0122D4E9000100F008F94B
:100B3C000222D4E9020100F003F90322D4E90401F2
:100B4C0000F0FEF80422D4E9060100F0F9F838E7C9
:100B5C00800100205001002020010020F000002026
:100B6C00C000002090000020600000203000002019
:100B7C0000000020B00100202DE9F04188B00024D5
:100B8C000494059406940794264B9A6942F010023B
:100B9C009A619A6902F010020092009A9A6942F0E6
:100BAC0020029A619A6902F020020192019A9A69D4
:100BBC0042F004029A619A6902F004020292029ACB
:100BCC009A6942F008029A619B6903F00803039347
:100BDC00039BDFF8548001224FF40051404600F093
:100BEC00C9FD124D22464FF40041284600F0C2FDCB
:100BFC004FF4005304930127059706940226079699
:100C0C0004A9404600F0A8FC4FF400430493059758
:100C1C000694079604A9284600F09EFC08B0BDE88F
:100C2C00F08100BF0010024000100140000C014098
:100C3C0008B5054B834200D008BDFF2305220349AC
:100C4C00014801F096FCF7E7340300200C02002069
:100C5C0072B6FEE700B591B02822002106A801F07B
:100C6C00E9FE00230193029303930493059301225D
:100C7C0006924FF4803307930A9202220D920E9340
:100C8C004FF4E0130F9306A800F090FD80B90F23EA
:100C9C00019302210291002303934FF4806204928A
:100CAC00059301A800F0B4FF20B911B05DF804FB66
:100CBC00FFF7CEFFFFF7CCFF08B500F041FBFFF7C5
:100CCC00C9FFFFF759FF00F063F900F0CBF900F012
:100CDC0009FA00F049FA00F089FA00F017F8084C0C
:100CEC00FF2315220749204601F0E4FB05220649A3
:100CFC00204601F08CFE0920FFF73EFEFBE700BF0B
:100D0C0034030020182C00080C02002008B5002128
:100D1C00074801F0E7F90021064801F0E3F900214A
:100D2C00054801F0DFF90021044801F0DBF908BDAA
:100D3C00EC020020A40200205C020020140200201F
:100D4C0010B514460022124BFFF7C0FC0022114BC9
:100D5C00FFF792FB0022104BFFF7D8F9FFF79EFD2F
:100D6C00621E032A06D8DFE802F002060A0E0B4BBD
:100D7C001B68586310BD0A4B1B685863FAE7094B94
:100D8C001B685863F6E7084B1B685863F2E700BF13
:100D9C00008066400000444000002440EC0200202B
:100DAC00A40200205C0200201402002082B00E4B32
:100DBC009A6942F001029A619A6902F0010200926A
:100DCC00009ADA6942F08052DA61DB6903F08053F1
:100DDC000193019B054A536823F0E06343F00073D1
:100DEC00536002B0704700BF001002400000014089
:100DFC00FEE7FEE7FEE7FEE7FEE770477047704749
:100E0C0008B500F0AFFA08BD08B5024801F0A2FC25
:100E1C0008BD00BF340300207047000084B0036895
:100E2C001C4A934213D0B3F1804F1CD01A4A934200
:100E3C0025D01A4A934214D1194BDA6942F00402B4
:100E4C00DA61DB6903F004030393039B09E0144BA1
:100E5C009A6942F400629A619B6903F400630093FF
:100E6C00009B04B0704703F50433DA6942F00102C9
:100E7C00DA61DB6903F001030193019BF1E7084B95
:100E8C00DA6942F00202DA61DB6903F002030293D1
:100E9C00029BE6E7002C01400004004000080040E3
:100EAC000010024000B589B000230493059306930B
:100EBC0007930368304A93420BD0B3F1804F1DD097
:100ECC002E4A93422FD02E4A934240D009B05DF85F
:100EDC0004FB2C4B9A6942F004029A619B6903F063
:100EEC0004030093009B4FF4407304930223059377
:100EFC00079304A9244800F02FFBE7E703F504331C
:100F0C009A6942F004029A619B6903F0040301930D
:100F1C00019B0123049302230593079304A91A4808
:100F2C0000F01AFBD2E7174B9A6942F004029A615F
:100F3C009B6903F004030293029B40230493022356
:100F4C000593079304A9104800F006FBBEE70D4B70
:100F5C009A6942F008029A619B6903F008030393B3
:100F6C00039B4023049302230593079304A907488A
:100F7C0000F0F2FAAAE700BF002C01400004004088
:100F8C00000800400010024000080140000C014025
:100F9C0010B592B000241094119409940A940B94F7
:100FAC000C940D940E940F942022214601A801F06C
:100FBC0041FD2A482A4B036040F60F63436084606E
:100FCC0040F28F13C360046144618023836100F09D
:100FDC00B1FF002832D100231093119310A91F48A0
:100FEC0001F0EEF800282CD16023099300220A921C
:100FFC000B920C920D920E920F9209A9174800F0C9
:10100C00F3FF08BB02230B93042209A9134800F039
:10101C00EBFFE0B900230193029303930493059330
:10102C004FF400520692089301A90C4801F0FEF807
:10103C0080B90A48FFF736FF12B010BDFFF708FE63
:10104C00C9E7FFF705FECFE7FFF702FEDAE7FFF788
:10105C00FFFDDFE7FFF7FCFDEBE700BFEC02002034
:10106C00002C014000B58BB0002308930993019329
:10107C0002930393049305930693079318484FF038
:10108C008042026040F60F624260836040F28F1231
:10109C00C2600361836100F04DFFC0B90023089367
:1010AC00099308A90E4801F08BF898B960230193B5
:1010BC00002202920392059201A9094800F094FFC4
:1010CC0058B90748FFF7EEFE0BB05DF804FBFFF7CD
:1010DC00BFFDE3E7FFF7BCFDE8E7FFF7B9FDF0E77D
:1010EC00A402002000B58BB0002308930993019350
:1010FC000293039304930593069307931848194A94
:10110C00026040F60F624260836040F28F12C26050
:10111C000361836100F00EFFC0B9002308930993AB
:10112C0008A90F4801F04CF898B9602301930022EC
:10113C0002920392059201A9094800F055FF58B993
:10114C000748FFF7AFFE0BB05DF804FBFFF780FD1F
:10115C00E3E7FFF77DFDE8E7FFF77AFDF0E700BF77
:10116C005C0200200004004000B58BB00023089303
:10117C0009930193029303930493059306930793A6
:10118C001848194A026040F60F624260836040F2D0
:10119C008F12C2600361836100F0CCFEC0B90023E2
:1011AC000893099308A90F4801F00AF898B960232D
:1011BC000193002202920392059201A9094800F0C2
:1011CC0013FF58B90748FFF76DFE0BB05DF804FB31
:1011DC00FFF73EFDE3E7FFF73BFDE8E7FFF738FDE0
:1011EC00F0E700BF140200200008004008B50A48D0
:1011FC000A4B03604FF4E133436000238360C36008
:10120C0003610C2242618361C36101F023F900B9CF
:10121C0008BDFFF71DFDFBE7340300200044004030
:10122C0030B587B0002302930393049305930268AF
:10123C001B4B9A4201D007B030BD03F5E633DA6997
:10124C0042F40032DA61DA6902F400320092009A58
:10125C009A6942F004029A619B6903F004030193BA
:10126C00019B0423029302230393032305930D4D47
:10127C0002A9284600F070F9082302930024039475
:10128C0004940DEB0301284600F066F92246214632
:10129C00262000F0BFF8262000F0CCF8CBE700BFEA
:1012AC000044004000080140FFF7B6FD0B480C4914
:1012BC000C4A002302E0D458C4500433C4188C42A6
:1012CC00F9D3094A094C002301E013600432A2420D
:1012DC00FBD301F0FFFBFFF7EFFC70470000002091
:1012EC00F0010020682C0008F001002018050020F7
:1012FC00FEE7000010B504460E4B1A784FF47A73D3
:10130C00B3FBF2F30C4A1068B0FBF3F000F0A0F85A
:10131C0068B90F2C01D901200AE0002221464FF0B8
:10132C00FF3000F077F8054B1C60002000E0012036
:10133C0010BD00BFE4010020E0010020E801002006
:10134C0008B5074A136843F010031360032000F03C
:10135C004FF80F20FFF7CEFFFFF728FD002008BD48
:10136C0000200240034A1168034B1B780B441360A6
:10137C00704700BF7C030020E4010020014B18687B
:10138C00704700BF7C030020002808DB0901C9B2AC
:10139C0000F1604000F5614080F80013704700F0E8
:1013AC000F000901C9B2014B1954704714ED00E04C
:1013BC0000B500F00700C0F1070CBCF1040F28BF0A
:1013CC004FF0040C031D062B0FD9C31E4FF0FF3E2C
:1013DC000EFA0CF021EA000199400EFA03FE22EA03
:1013EC000E0241EA02005DF804FB0023EEE7000068
:1013FC00074AD36823F4E0631B041B0C000200F4BF
:10140C00E060034343F0BF6343F40033D3607047A1
:10141C0000ED00E010B50446054BD868C0F302207F
:10142C00FFF7C6FF01462046FFF7AEFF10BD00BF19
:10143C0000ED00E0002807DB00F01F02400901234B
:10144C009340024A42F82030704700BF00E100E0B0
:10145C000138B0F1807F0BD24FF0E0235861054A80
:10146C00F02182F823100020986107221A6170473E
:10147C000120704700ED00E0034690F82120D2B225
:10148C00022A06D004228263002280F82020012048
:10149C00704701680A6822F00E020A6001680A6847
:1014AC0022F001020A60026CC06B012101FA02F207
:1014BC00426083F82110002083F820007047000060
:1014CC0008B590F82130DBB2022B03D004238363E0
:1014DC00012008BD0268136823F00E031360026834
:1014EC00136823F0010313600368194A934214D064
:1014FC00143293421FD0143293421ED014329342B2
:10150C001ED0143293421ED01432934202D04FF0AC
:10151C00807203E04FF4801200E001220D4B5A6000
:10152C00012380F82130002380F82030436B6BB10D
:10153C0098470020CDE71022F0E74FF48072EDE7DA
:10154C004FF48052EAE74FF48032E7E70020C0E71F
:10155C00080002400000024070B582B00024A4468E
:10156C00A1E07E4DAB4214D00CD8A5F58015AB4252
:10157C000FD005F57025AB420BD0A5F58015AB420D
:10158C0010D106E0764DAB4203D005F58035AB4269
:10159C0008D18B68002B50D0012B49D04261082414
:1015AC0000E0CC68BEF1FF0F49D806464FEA8C022A
:1015BC0033680F25954023EA050304FA02F213431E
:1015CC0033604B6813F0805F6BD0664B9A6942F0C6
:1015DC0001029A619B6903F001030193019B4FEA9D
:1015EC009C02951C604B53F825600CF00305AD0074
:1015FC000F23AB4026EA03065C4B984226D003F53A
:10160C008063984200F08C8003F58063984200F070
:10161C00898003F58063984216D0042317E0CC68C8
:10162C000434BFE7CC680834BCE7CC680C34B9E7A9
:10163C0002610824B6E70024B4E70424B2E7061DCF
:10164C00ACF108029200B3E7032300E00023AB40A7
:10165C0033430232444D45F822304B6813F4801F5B
:10166C0062D0434A936843EA0E0393604B6813F4C9
:10167C00001F5FD03E4AD36843EA0E03D3604B6829
:10168C0013F4003F5CD03A4A536843EA0E035360AC
:10169C004B6813F4803F59D0354A136843EA0E0364
:1016AC0013600CF1010C0B6833FA0CF254D00122CC
:1016BC0002FA0CF203EA020E32EA0303F1D14B6890
:1016CC00122B3FF64EAF122B3FF66CAF01A555F81F
:1016DC0023F000BF9F150008AF1500083116000855
:1016EC0043160008B1150008B1150008B115000823
:1016FC00B1150008B1150008B1150008B1150008A6
:10170C00B1150008B1150008B1150008B115000895
:10171C00B1150008B11500082B1600083716000883
:10172C00012394E7022392E7114A936823EA0E03FC
:10173C0093609BE70E4AD36823EA0E03D3609EE7BF
:10174C000B4A536823EA0E035360A1E7084A136857
:10175C0023EA0E031360A4E702B070BD0000221050
:10176C000000311000100240000001400008014050
:10177C00000401400AB1016170470904016170471E
:10178C0082B0084B1B68084AA2FB03235B0A00FBD0
:10179C0003F3019300BF019B5A1E0192002BF9D158
:1017AC0002B07047E0010020D34D6210002800F019
:1017BC00F18170B582B00446036813F0010F2CD090
:1017CC00994B5B6803F00C03042B1DD0964B5B68A4
:1017DC0003F00C03082B12D06368B3F5803F41D0A3
:1017EC00002B55D103F1804303F504331A6822F41E
:1017FC0080321A601A6822F480221A6037E08A4B11
:10180C005B6813F4803FE7D0874B1B6813F4003FF1
:10181C0003D06368002B00F0BF81236813F0020F24
:10182C0075D0814B5B6813F00C0F5FD07E4B5B68FF
:10183C0003F00C03082B54D02369002B00F08A8092
:10184C007A4B01221A60FFF799FD0546764B1B680F
:10185C0013F0020F75D1FFF791FD401B0228F5D94B
:10186C0003209EE1704A136843F48033136063686D
:10187C0043B3FFF783FD05466B4B1B6813F4003F26
:10188C00CBD1FFF77BFD401B6428F5D9032088E101
:10189C00B3F5A02F09D0644B1A6822F480321A6079
:1018AC001A6822F480221A60E1E703F18043A3F561
:1018BC003C331A6842F480221A601A6842F480326F
:1018CC001A60D4E7FFF75AFD0546574B1B6813F413
:1018DC00003FA2D0FFF752FD401B6428F5D903202E
:1018EC005FE1514B5B6813F4803FA5D14E4B1B68F5
:1018FC0013F0020F03D02369012B40F04F814A4AA9
:10190C00136823F0F803616943EAC1031360236889
:10191C0013F0080F33D0A369002B5CD0434B01228A
:10192C00C3F88024FFF72AFD05463F4B5B6A13F092
:10193C00020F21D1FFF722FD401B0228F5D903200D
:10194C002FE1394A136823F0F803616943EAC103B4
:10195C001360DCE7354B00221A60FFF70FFD0546DC
:10196C00314B1B6813F0020FD1D0FFF707FD401B62
:10197C000228F5D9032014E10120FFF701FF2368A9
:10198C0013F0040F00F09680274BDB6913F0805F97
:10199C0034D1254BDA6942F08052DA61DB6903F00D
:1019AC0080530193019B0125214B1B6813F4807F0D
:1019BC0026D0E368012B3DD0002B53D103F180439B
:1019CC0003F504331A6A22F001021A621A6A22F031
:1019DC0004021A6233E0154B0022C3F88024FFF78F
:1019EC00CDFC0546104B5B6A13F0020FC7D0FFF716
:1019FC00C5FC401B0228F5D90320D2E00025D3E713
:101A0C000B4A136843F480731360FFF7B7FC064668
:101A1C00074B1B6813F4807FCBD1FFF7AFFC801B07
:101A2C006428F5D90320BCE00010024000004242BB
:101A3C00007000405F4A136A43F001031362E368CD
:101A4C0033B3FFF79BFC06465A4B1B6A13F0020F8D
:101A5C002FD1FFF793FC801B41F288339842F3D9C6
:101A6C0003209EE0052B09D0524B1A6A22F001028A
:101A7C001A621A6A22F004021A62E0E74D4B1A6AE3
:101A8C0042F004021A621A6A42F001021A62D6E7A4
:101A9C00FFF774FC0646474B1B6A13F0020F08D085
:101AAC00FFF76CFC801B41F288339842F3D903207A
:101ABC0077E0E5B9E369002B72D03E4A526802F038
:101ACC000C02082A56D0022B17D03B4B00221A6668
:101ADC00FFF754FC0446374B1B6813F0007F47D0CC
:101AEC00FFF74CFC001B0228F5D9032059E0314AC2
:101AFC00D36923F08053D361DCE72F4B00221A66A5
:101B0C00FFF73CFC05462B4B1B6813F0007F06D0FF
:101B1C00FFF734FC401B0228F5D9032041E0236A6F
:101B2C00B3F5803F1AD023494B6823F47413226A0F
:101B3C00606A024313434B601F4B01221A66FFF786
:101B4C001DFC04461B4B1B6813F0007F0ED1FFF7E6
:101B5C0015FC001B0228F5D9032022E0154A536816
:101B6C0023F40033A1680B435360DCE7002018E03A
:101B7C00002016E0012B16D00E4B5B6803F480316D
:101B8C00226A914211D103F47013626A93420ED10E
:101B9C00002006E001207047012002E0012000E057
:101BAC00002002B070BD0120FBE70120F9E7012005
:101BBC00F7E700BF00100240000042420F4B5B6889
:101BCC0003F00C02082A01D00D487047C3F383427E
:101BDC000C49885C13F4803F0BD0084B5B68C3F353
:101BEC004043094AD35C064A02FB00F0B0FBF3F019
:101BFC007047064B03FB00F0704700BF001002401B
:101C0C0000127A004C2C0008482C000800093D00FA
:101C1C00002800F0A08070B50D460446524B1B689E
:101C2C0003F007038B420BD24F4A136823F00703D0
:101C3C000B431360136803F007038B4240F08D8055
:101C4C00236813F0020F17D013F0040F04D0474A87
:101C5C00536843F4E0635360236813F0080F04D017
:101C6C00424A536843F460535360404A536823F02C
:101C7C00F003A1680B435360236813F0010F31D0BC
:101C8C006368012B20D0022B25D0384A126812F041
:101C9C00020F64D035494A6822F0030213434B60AB
:101CAC00FFF76CFB0646314B5B6803F00C03626874
:101CBC00B3EB820F16D0FFF761FB801B41F2883328
:101CCC009842F0D9032045E0284A126812F4003FEC
:101CDC00E0D101203EE0254A126812F0007FD9D1F4
:101CEC00012037E0204B1B6803F00703AB420AD9F5
:101CFC001D4A136823F007032B431360136803F08A
:101D0C000703AB422DD1236813F0040F06D0174AFA
:101D1C00536823F4E063E1680B435360236813F0CA
:101D2C00080F07D0114A536823F46053216943EA22
:101D3C00C1035360FFF742FF0C4B5B68C3F3031303
:101D4C000B4AD35CD8400B4B18600B4B1868FFF751
:101D5C00D1FA002070BD012070470120FAE7012064
:101D6C00F8E70120F6E700BF002002400010024017
:101D7C00382C0008E0010020E8010020014B186815
:101D8C00704700BFE001002008B5FFF7F7FF044BD8
:101D9C005B68C3F30223034AD35CD84008BD00BF81
:101DAC0000100240302C000808B5FFF7E7FF044B89
:101DBC005B68C3F3C223034AD35CD84008BD00BFA1
:101DCC0000100240302C000830B4026A036A23F081
:101DDC00010303624568836923F073030C681C4399
:101DEC0022F002028B6813430B4A904206D04560E6
:101DFC0084614A684263036230BC704723F0080375
:101E0C00CA681A4322F0040325F440754A692A4330
:101E1C008D691543EBE700BF002C014030B4036A19
:101E2C00026A22F4807202624468C26922F0730270
:101E3C000D68154323F400738A6843EA02230D4AA4
:101E4C00904206D04460C5614A68C263036230BCEC
:101E5C00704723F40063CA6843EA022323F48063C7
:101E6C0024F440544A6944EA02148A6944EA02148C
:101E7C00E8E700BF002C014030B4036A026A22F488
:101E8C00805202624468C26922F4E6420D6842EA5A
:101E9C00052223F400538D6843EA0533074DA8420D
:101EAC0006D04460C2614A680264036230BC704769
:101EBC0024F480444D6944EA8514F2E7002C014077
:101ECC0003681B4A90420AD0B0F1804F07D0A2F5AC
:101EDC009432904203D002F58062904203D123F0F9
:101EEC0070034A681343124A90420AD0B0F1804FF3
:101EFC0007D0A2F59432904203D002F58062904252
:101F0C0003D123F44073CA68134323F080034A6956
:101F1C00134303608B68C3620B688362044B984263
:101F2C0002D00123436170470B690363F9E700BFDB
:101F3C00002C014040B310B5044690F83D30F3B18D
:101F4C00022384F83D30214651F8040BFFF7B8FF0B
:101F5C00012384F8463084F83E3084F83F3084F80E
:101F6C00403084F8413084F8423084F8433084F8AF
:101F7C00443084F8453084F83D30002010BD80F8A2
:101F8C003C30FEF74BFFDBE70120704730B4036AAF
:101F9C00026A22F0100202624468826922F4E6426C
:101FAC000D6842EA052223F020038D6843EA0513ED
:101FBC000C4DA84206D0446082614A688263036279
:101FCC0030BC704723F08003CD6843EA051323F03F
:101FDC00400324F440644D6944EA85048D6944EA65
:101FEC008504E8E7002C014038B590F83C30012B13
:101FFC0066D004460D46012380F83C300C2A5AD892
:10200C00DFE802F0075959591B5959593059595998
:10201C0044000068FFF7D8FE2268936943F0080378
:10202C0093612268936923F0040393612268936996
:10203C0029690B43936100203EE00068FFF7A6FF7F
:10204C002268936943F4006393612268936923F4D3
:10205C008063936122689369296943EA0123936140
:10206C00002029E00068FFF7D9FE2268D36943F00D
:10207C000803D3612268D36923F00403D361226877
:10208C00D36929690B43D361002015E00068FFF781
:10209C00F3FE2268D36943F40063D3612268D369E9
:1020AC0023F48063D3612268D369296943EA01234D
:1020BC00D361002000E00120002384F83C3038BDBF
:1020CC000220FCE701F01F014FF0010C0CFA01FC9F
:1020DC00036A23EA0C030362036A8A401343036214
:1020EC007047000010B50446084651BB94F83E30CA
:1020FC00DBB2013B18BF0123002B5BD1002839D187
:10210C00022384F83E30012201462068FFF7DAFFF3
:10211C0023682A4A93423DD02368284A93423ED0F2
:10212C00B3F1804F3BD0A2F59432934237D002F5F5
:10213C008062934233D01A6842F001021A60002088
:10214C0039E0042908D008290DD094F84130DBB2CD
:10215C00013B18BF0123CFE794F83F30DBB2013BC2
:10216C0018BF0123C8E794F84030DBB2013B18BF1D
:10217C000123C1E7042805D0082807D0022384F8DE
:10218C004130C0E7022384F83F30BCE7022384F8D7
:10219C004030B8E75A6C42F400425A64BCE79A6883
:1021AC0002F00702062A07D01A6842F001021A60F0
:1021BC00002000E0012010BD0020FCE7002C0140B5
:1021CC0090F83C20012A2CD010B40346012280F850
:1021DC003C20022280F83D2002685068946820F070
:1021EC00700C086840EA0C0050601A680E48824275
:1021FC000AD0B2F1804F07D0A0F59430824203D0C0
:10220C0000F58060824204D124F0800449682143A7
:10221C009160012283F83D20002083F83C0010BC23
:10222C0070470220704700BF002C0140024690F816
:10223C003C30012B21D0012380F83C30CB6823F4B7
:10224C0040738868034323F480634868034323F492
:10225C0000630868034323F480530869034323F4A1
:10226C0000534869034323F48043C9690B43116845
:10227C004B64002082F83C007047022070470268D3
:10228C0002F10C0353E8003F23F490730C3242E844
:10229C0000310029F3D1026802F1140353E8003F26
:1022AC0023F00103143242E800310029F3D1036B0F
:1022BC00012B05D0202380F84230002303637047A4
:1022CC00026802F10C0353E8003F23F010030C32B8
:1022DC0042E800310029F3D1ECE790F84130DBB251
:1022EC00212B01D0022070478368B3F5805F17D093
:1022FC00036A5A1C02621A7803685A60C38C9BB238
:10230C00013B9BB2C3844BB90268D36823F08003B2
:10231C00D3600268D36843F04003D3600020704759
:10232C000369002BE4D1036A1B880268C3F308031A
:10233C005360036A02330362E0E7000010B5044601
:10234C000268136923F44053C1680B43136183681B
:10235C000269134342691A430168CB6823F4B053F2
:10236C0023F00C031343CB600268536923F44073CE
:10237C0081690B4353610268134B9A4220D0FFF7DB
:10238C0003FD024602EB820202EB820263689B00B1
:10239C00B2FBF3F20D48A0FB02314909642303FBA5
:1023AC0011231B013233A0FB03035B0903F0F00282
:1023BC0002EB011203F00F03216813448B6010BD74
:1023CC00FFF7F2FC0246DDE7003801401F85EB51B8
:1023DC002DE9F84305460F4616469946DDF8208050
:1023EC002B681C6837EA04040CBF01240024B44297
:1023FC002DD1B8F1FF3FF3D0B8F1000F05D0FEF7A7
:10240C00BDFFA0EB09004045EAD92A6802F10C0394
:10241C0053E8003F23F4D0730C3242E8003100291A
:10242C00F3D12A6802F1140353E8003F23F00103AF
:10243C00143242E800310029F3D1202385F84130D1
:10244C0085F84230002385F84030032000E000205E
:10245C00BDE8F88360B310B5044690F8413013B36F
:10246C00242384F841302268D36823F40053D360CA
:10247C002046FFF763FF2268136923F4904313612E
:10248C002268536923F02A0353612268D36843F40A
:10249C000053D36000206064202384F8413084F81A
:1024AC004230606310BD80F84030FEF7B9FED7E7CC
:1024BC00012070472DE9F04182B01E4690F8413062
:1024CC00DBB2202B4BD104460D46904600294AD056
:1024DC000AB9012044E000234364212380F84130F1
:1024EC00FEF74CFF0746A4F82480A4F82680A368C6
:1024FC00B3F5805F02D04FF000080FE02369FBB109
:10250C004FF000080AE038F8023B2268C3F30803D6
:10251C005360E28C92B2013A92B2E284E38C9BB2A9
:10252C008BB100963B46002280212046FFF750FFDE
:10253C00D8B9002DE7D015F8012B23685A60E8E7CD
:10254C00A8460025EAE700963B460022402120469B
:10255C00FFF73EFF58B9202384F8413000E00220F9
:10256C0002B0BDE8F0810120FAE70320F8E7032070
:10257C00F6E72DE9F04182B01E4690F84230DBB20E
:10258C00202B53D104460D469046002952D00AB94F
:10259C0001204CE000234364222280F84220036394
:1025AC00FEF7ECFE0746A4F82C80A4F82E80A36856
:1025BC00B3F5805F02D04FF0000817E0236913B128
:1025CC004FF0000812E0A84600250FE023685B6876
:1025DC00C3F3080328F8023B03E023685B682B7005
:1025EC000135E28D92B2013A92B2E285E38D9BB253
:1025FC00BBB100963B46002220212046FFF7E8FEA7
:10260C00D0B9002DE2D0A368B3F5805FE5D013B943
:10261C002369002BE1D023685B6803F07F032B70E8
:10262C00DEE7202384F84230002000E0022002B0D4
:10263C00BDE8F0810120FAE70320F8E7704708B500
:10264C000168CA6822F04002CA60202280F841204A
:10265C00FFF7F4FF002008BD704708B5406A00235F
:10266C00C385C384FFF7F8FF08BD704790F842306C
:10267C00DBB2222B69D18368B3F5805F4FD0826ABD
:10268C00B3F5805F04D0002B56D10369002B53D1D6
:10269C0003685B681370836A01338362C38D9BB2DA
:1026AC00013B9BB2C385002B51D100B583B00268AE
:1026BC00D36823F02003D3600268D36823F48073BB
:1026CC00D3600268536923F001035361202380F81F
:1026DC00423000234363036B012B33D1002303638C
:1026EC00026802F10C0353E8003F23F010030C3294
:1026FC0042E800310029F3D103681A6812F0100F78
:10270C0006D0002201921A6801925B680193019B2A
:10271C00818DFFF7AAFF002003B05DF804FB02696E
:10272C00002AACD1826A03685B68C3F30803138088
:10273C00836A02338362B1E703685B6803F07F034B
:10274C001370A8E7FEF774FAE5E702207047002043
:10275C007047000010B582B0044602681368D06858
:10276C00516913F00F0F09D113F0200F0CD010F09A
:10277C00200F09D02046FFF779FF16E011F0010178
:10278C0015D110F4907F12D1216B012979D013F05F
:10279C00800F03D010F0800F40F0138113F0400F26
:1027AC0003D010F0400F40F0108102B010BD13F0B8
:1027BC00010F06D010F4807F03D0626C42F001024E
:1027CC00626413F0040F04D019B1626C42F002027F
:1027DC00626413F0020F04D019B1626C42F004026F
:1027EC00626413F0080F07D010F0200F00D119B15C
:1027FC00626C42F008026264626C002AD5D013F05D
:10280C00200F02D010F0200F29D123685B6903F050
:10281C004003626C12F0080F00D163B32046FFF73F
:10282C002EFD23685B6913F0400F20D0226802F163
:10283C00140353E8003F23F04003143242E8003104
:10284C000029F3D1E36B73B1624A5A63E06BFEF774
:10285C0037FE0028A9D0E06B436B9847A5E72046CC
:10286C00FFF704FFD1E72046FFF7F6FE9DE7204671
:10287C00FFF7F2FE99E72046FFF7EEFE00236364B4
:10288C0093E713F0100F82D010F0100F3FF47FAFCE
:10289C00002301931368019353680193019B5369BF
:1028AC0013F0400F51D0E26B13685B689BB2002BA6
:1028BC003FF47BAFA18D99427FF677AFE3859369A7
:1028CC00202B37D0226802F10C0353E8003F23F48D
:1028DC0080730C3242E800310029F3D1226802F1F6
:1028EC00140353E8003F23F00103143242E8003193
:1028FC000029F3D1226802F1140353E8003F23F0BE
:10290C004003143242E800310029F3D1202384F82B
:10291C00423000232363226802F10C0353E8003F8A
:10292C0023F010030C3242E800310029F3D1E06BA4
:10293C00FEF7A2FD02236363A18DE38D9BB2C91A3E
:10294C0089B22046FFF791FE2FE7A18DE38D9BB254
:10295C00C91A89B2E38D9BB2002B3FF426AF002934
:10296C003FF423AF226802F10C0353E8003F23F439
:10297C0090730C3242E800300028F3D1226802F147
:10298C00140353E8003F23F00103143242E80030F3
:10299C000028F3D1202384F84230002323632268DB
:1029AC0002F10C0353E8003F23F010030C3242E811
:1029BC0000300028F3D1022363632046FFF755FE55
:1029CC00F3E62046FFF789FCEFE62046FFF737FEDB
:1029DC00EBE600BF6726000881628285C285002372
:1029EC004364222380F84230036923B10268D36820
:1029FC0043F48073D3600268536943F0010353615D
:102A0C000268D36843F02003D3600020704708B5F8
:102A1C0090F84230DBB2202B08D149B10AB9012021
:102A2C0008BD00230363FFF7D7FFF9E70220F7E7A0
:102A3C000120F5E770B5860747D0541E002A3ED01A
:102A4C000346CAB201E0013C39D303F8012B9D07C0
:102A5C00F9D1032C2CD9CDB205EB05250F2C1A4638
:102A6C0005EB054534D9A4F1100C2CF00F0603F13D
:102A7C00100EB6444FEA1C1CC2E90055C2E90255BF
:102A8C0010327245F8D10CF1010214F00C0F03EB6B
:102A9C00021204F00F0C13D0ACF1040323F0030367
:102AAC000433134442F8045B9342FBD10CF003044F
:102ABC002CB1C9B21C4403F8011BA342FBD170BD5D
:102ACC0064461346002CF4D1F9E703461446C0E7DC
:102ADC00A446E1E770B50F4B0F4DAB42A3EB0506D7
:102AEC0007D00024B61055F8043B01349847A64291
:102AFC00F9D800F07FF8094D094B5E1BAB424FEA49
:102B0C00A60606D0002455F8043B01349847A6428B
:102B1C00F9D870BD5C2C00085C2C00085C2C0008FB
:102B2C00642C0008704700BF704700BF024B13B104
:102B3C00024800F005B8704700000000592B00084F
:102B4C00002301461A46184600F014B838B5074D54
:102B5C00074C2C1BA41005D0013C55F8043D98479C
:102B6C00002CF9D1BDE8384000F04AB8682C0008B8
:102B7C00642C00082DE9F8431B4D0646286898463E
:102B8C000F469146FFF7CEFF184B1C681CB3286804
:102B9C0065681F2D22DC4EB96B1C0235636044F84E
:102BAC002570FFF7C1FF0020BDE8F883012304EB7B
:102BBC008501C1F88890D4F88821AB401A43022EC5
:102BCC00C4F88821C1F80881E6D1D4F88C211A43C5
:102BDC00C4F88C21E0E7064C1C60D8E7FFF7A4FF93
:102BEC004FF0FF30E0E700BFEC0100208403002031
:102BFC0088030020F8B500BFF8BC08BC9E4670479F
:0C2C0C00F8B500BFF8BC08BC9E4670473D
:102C1800656E74657220737461727420746F2073AA
:102C2800746172740A0000000000000001020304CD
:102C38000000000000000000010203040607080964
:102C48000102000002030405060708090A0B0C0D1F
:042C58000E0F10103B
:082C5C00392B00086109000892
:042C64003909000822
:102C68000000000000405A400000000000005B40E7
:102C78000000000000405C4000000000008046406A
:102C8800000000000000000000000000000000003C
:102C98000000000000C0554000000000000059403E
:102CA8000000000000405C4000000000008046403A
:102CB800000000000000000000000000000000000C
:102CC8000000000000C052400000000000405840D2
:102CD8000000000000005E40000000000080464048
:102CE80000000000000000000000000000000000DC
:102CF80000000000000059400000000000005E4095
:102D0800000000000000594000000000008046401C
:102D180000000000000000000000000000000000AB
:102D280000000000008056400000000000C05C4029
:102D38000000000000005940000000000000594059
:102D4800000000000000000000000000000000007B
:102D58000000000000C05240000000000040604039
:102D68000000000000405A4000000000008046407B
:102D7800000000000000000000000000000000004B
:102D880000000000000059400000000000406040C2
:102D98000000000000005440000000000000444013
:102DA800000000000000000000000000000000001B
:102DB8000000000000C055400000000000406040D6
:102DC8000000000000005440000000000080424065
:102DD80000000000000000000000000000000000EB
:102DE8000000000000005440000000000040604067
:102DF80000000000000054400000000000004440B3
:102E080000000000000000000000000000000000BA
:102E180000000000008046400000000000005E4006
:102E280000000000008056400000000000005940EB
:102E3800000000000000000000000000000000008A
:102E48000024F400010000001000000080030020AE
:04000005080012B528
:00000001FF
