:020000040800F2
:100000000050002075100008E90E0008EB0E0008F3
:10001000ED0E0008EF0E0008F10E000800000000D1
:10002000000000000000000000000000F30E0008C7
:10003000F50E000800000000F70E0008F90E000899
:10004000BD100008BD100008BD100008BD1000085C
:10005000BD100008BD100008BD100008BD1000084C
:10006000BD100008BD100008BD100008BD1000083C
:10007000BD100008BD100008BD100008BD1000082C
:10008000BD100008BD100008BD100008BD1000081C
:10009000BD100008BD100008BD100008BD1000080C
:1000A000BD100008BD100008BD100008BD100008FC
:1000B000BD100008BD100008BD100008BD100008EC
:1000C000BD100008BD100008BD100008BD100008DC
:1000D000BD100008BD100008BD100008BD100008CC
:1000E000BD100008BD100008BD1000080000000091
:1000F0000000000000000000000000000000000000
:0C01000000000000000000005FF808F1A3
:1001100081F0004102E000BF83F0004330B54FEAB8
:1001200041044FEA430594EA050F08BF90EA020F25
:100130001FBF54EA000C55EA020C7FEA645C7FEAB8
:10014000655C00F0E2804FEA5454D4EB5555B8BFDB
:100150006D420CDD2C4480EA020281EA030382EA4C
:10016000000083EA010180EA020281EA0303362DDE
:1001700088BF30BD11F0004F4FEA01314FF4801CB1
:100180004CEA113102D0404261EB410113F0004FC3
:100190004FEA03334CEA133302D0524263EB43037A
:1001A00094EA050F00F0A780A4F10104D5F1200E18
:1001B0000DDB02FA0EFC22FA05F2801841F1000173
:1001C00003FA0EF2801843FA05F359410EE0A5F147
:1001D00020050EF1200E012A03FA0EFC28BF4CF078
:1001E000020C43FA05F3C01851EBE37101F000452E
:1001F00007D54FF0000EDCF1000C7EEB00006EEB3B
:100200000101B1F5801F1BD3B1F5001F0CD34908C4
:100210005FEA30004FEA3C0C04F101044FEA44521B
:1002200012F5800F80F09A80BCF1004F08BF5FEAA2
:10023000500C50F1000041EB045141EA050130BD82
:100240005FEA4C0C404141EB0101013C28BFB1F594
:10025000801FE9D291F0000F04BF01460020B1FADF
:1002600081F308BF2033A3F10B03B3F120020CDAB2
:100270000C3208DD02F1140CC2F10C0201FA0CF090
:1002800021FA02F10CE002F11402D8BFC2F1200CF5
:1002900001FA02F120FA0CFCDCBF41EA0C019040AB
:1002A000E41AA2BF01EB0451294330BD6FEA0404F4
:1002B0001F3C1CDA0C340EDC04F11404C4F12002DF
:1002C00020FA04F001FA02F340EA030021FA04F3F1
:1002D00045EA030130BDC4F10C04C4F1200220FA48
:1002E00002F001FA04F340EA0300294630BD21FA86
:1002F00004F0294630BD94F0000F83F4801306BF4C
:1003000081F480110134013D4EE77FEA645C18BF3F
:100310007FEA655C29D094EA050F08BF90EA020FD6
:1003200005D054EA000C04BF1946104630BD91EACE
:10033000030F1EBF0021002030BD5FEA545C05D1D1
:100340004000494128BF41F0004130BD14F5800410
:100350003CBF01F5801130BD01F0004545F0FE4184
:1003600041F470014FF0000030BD7FEA645C1ABFB9
:10037000194610467FEA655C1CBF0B46024650EAF0
:10038000013406BF52EA033591EA030F41F400211C
:1003900030BD00BF90F0000F04BF0021704730B5A2
:1003A0004FF4806404F132044FF000054FF0000177
:1003B00050E700BF90F0000F04BF0021704730B538
:1003C0004FF4806404F1320410F0004548BF40420D
:1003D0004FF000013EE700BF42004FEAE2014FEA62
:1003E00031014FEA02701FBF12F07F4393F07F4F3D
:1003F00081F06051704732F07F4208BF704793F040
:100400007F4F04BF41F40021704730B54FF4607452
:1004100001F0004521F000411CE700BF50EA010255
:1004200008BF704730B54FF000050AE050EA0102FE
:1004300008BF704730B511F0004502D5404261EB6E
:1004400041014FF4806404F132045FEA915C3FF4AF
:10045000D8AE4FF003025FEADC0C18BF03325FEA4C
:10046000DC0C18BF033202EBDC02C2F1200300FAFD
:1004700003FC20FA02F001FA03FE40EA0E0021FA22
:1004800002F11444BDE600BF70B54FF0FF0C4CF410
:10049000E06C1CEA11541DBF1CEA135594EA0C0FC2
:1004A00095EA0C0F00F0DEF82C4481EA030621EAFD
:1004B0004C5123EA4C5350EA013518BF52EA033538
:1004C00041F4801143F4801338D0A0FB02CE4FF0EA
:1004D0000005E1FB02E506F00042E0FB03E54FF01A
:1004E0000006E1FB03569CF0000F18BF4EF0010E12
:1004F000A4F1FF04B6F5007F64F5407404D25FEA0E
:100500004E0E6D4146EB060642EAC62141EA5551C0
:100510004FEAC52040EA5E504FEACE2EB4F1FD0C02
:1005200088BFBCF5E06F1ED8BEF1004F08BF5FEA80
:10053000500E50F1000041EB045170BD06F0004632
:1005400046EA010140EA020081EA0301B4EB5C04DF
:10055000C2BFD4EB0C0541EA045170BD41F48011D7
:100560004FF0000E013C00F3AB8014F1360FDEBFFC
:10057000002001F0004170BDC4F10004203C35DAD8
:100580000C341BDC04F11404C4F1200500FA05F35B
:1005900020FA04F001FA05F240EA020001F00042FC
:1005A00021F0004110EBD37021FA04F642EB060172
:1005B0005EEA430E08BF20EAD37070BDC4F10C049C
:1005C000C4F1200500FA04F320FA05F001FA04F260
:1005D00040EA020001F0004110EBD37041F100014C
:1005E0005EEA430E08BF20EAD37070BDC4F1200557
:1005F00000FA05F24EEA020E20FA04F301FA05F2BF
:1006000043EA020321FA04F001F0004121FA04F266
:1006100020EA020000EBD3705EEA430E08BF20EA36
:10062000D37070BD94F0000F0FD101F00046400070
:1006300041EB010111F4801F08BF013CF7D041EAF2
:10064000060195F0000F18BF704703F000465200F6
:1006500043EB030313F4801F08BF013DF7D043EAC7
:100660000603704794EA0C0F0CEA135518BF95EA7D
:100670000C0F0CD050EA410618BF52EA4306D1D104
:1006800081EA030101F000414FF0000070BD50EA23
:10069000410606BF1046194652EA430619D094EAAD
:1006A0000C0F02D150EA013613D195EA0C0F05D197
:1006B00052EA03361CBF104619460AD181EA0301EB
:1006C00001F0004141F0FE4141F470014FF00000A3
:1006D00070BD41F0FE4141F4780170BD70B54FF03E
:1006E000FF0C4CF4E06C1CEA11541DBF1CEA1355BE
:1006F00094EA0C0F95EA0C0F00F0A7F8A4EB0504A0
:1007000081EA030E52EA03354FEA013100F0888096
:100710004FEA03334FF0805545EA131343EA12635F
:100720004FEA022245EA111545EA10654FEA002614
:100730000EF000419D4208BF964244F1FD0404F5CD
:10074000407402D25B084FEA3202B61A65EB030529
:100750005B084FEA32024FF480104FF4002CB6EBE6
:10076000020E75EB030E22BFB61A754640EA0C0066
:100770005B084FEA3202B6EB020E75EB030E22BFA6
:10078000B61A754640EA5C005B084FEA3202B6EBE7
:10079000020E75EB030E22BFB61A754640EA9C00A6
:1007A0005B084FEA3202B6EB020E75EB030E22BF76
:1007B000B61A754640EADC0055EA060E18D04FEA34
:1007C000051545EA16754FEA06164FEAC30343EAD4
:1007D00052734FEAC2025FEA1C1CC0D111F4801FA1
:1007E0000BD141EA00014FF000004FF0004CB6E79A
:1007F00011F4801F04BF01430020B4F1FD0C88BF39
:10080000BCF5E06F3FF6AFAEB5EB030C04BFB6EB43
:10081000020C5FEA500C50F1000041EB045170BD36
:100820000EF0004E4EEA113114EB5C04C2BFD4EB63
:100830000C0541EA045170BD41F480114FF0000EE7
:10084000013C90E645EA060E8DE60CEA135594EA63
:100850000C0F08BF95EA0C0F3FF43BAF94EA0C0F66
:100860000AD150EA01347FF434AF95EA0C0F7FF4DB
:1008700025AF104619462CE795EA0C0F06D152EA2F
:1008800003353FF4FDAE1046194622E750EA410613
:1008900018BF52EA43067FF4C5AE50EA41047FF424
:1008A0000DAF52EA43057FF4EBAE12E74FEA410287
:1008B00012F5001215D211D56FF47873B3EB6252B2
:1008C00012D94FEAC12343F0004343EA505311F0D9
:1008D000004F23FA02F018BF404270474FF000006B
:1008E000704750EA013005D111F0004008BF6FF0A9
:1008F000004070474FF00000704700BF4FF0FF3CD2
:1009000006E000BF4FF0010C02E000BF4FF0010C09
:100910004DF804CD4FEA410C7FEA6C5C4FEA430C82
:1009200018BF7FEA6C5C1BD001B050EA410C0CBFD1
:1009300052EA430C91EA030F02BF90EA020F002033
:10094000704710F1000F91EA030F58BF994208BF9A
:1009500090422CBFD8176FEAE37040F00100704757
:100960004FEA410C7FEA6C5C02D150EA013C07D1AE
:100970004FEA430C7FEA6C5CD6D152EA033CD3D0F9
:100980005DF8040B704700BF8446104662468C46F3
:100990001946634600E000BF01B5FFF7B7FF002826
:1009A00048BF10F1000F01BD4DF808EDFFF7F4FF4F
:1009B0000CBF012000205DF808FB00BF4DF808EDDA
:1009C000FFF7EAFF34BF012000205DF808FB00BFFD
:1009D0004DF808EDFFF7E0FF94BF012000205DF81F
:1009E00008FB00BF4DF808EDFFF7CEFF94BF0120D4
:1009F00000205DF808FB00BF4DF808EDFFF7C4FFCD
:100A000034BF012000205DF808FB00BF4FEA410C15
:100A10007FEA6C5C02D150EA013C0AD14FEA430CF8
:100A20007FEA6C5C02D152EA033C02D14FF0000035
:100A300070474FF0010070470348044B834202D0D7
:100A4000034B03B1184770473C0100203C010020D4
:100A5000000000000548064B1B1AD90F01EBA3014B
:100A6000491002D0034B03B1184770473C010020E6
:100A70003C0100200000000010B5064C237843B96B
:100A8000FFF7DAFF044B13B10448AFF300800123F2
:100A9000237010BD3C01002000000000D438000885
:100AA00008B5054B1BB105490548AFF30080BDE80B
:100AB0000840FFF7CFBF00BF00000000400100204A
:100AC000D4380008000000002DE9F84F06460F4614
:100AD00014461D46DFF8B081D8F80000FFF75AFC35
:100AE00002460B4630463946FFF716FB06460F46D0
:100AF000D8F80400FFF74EFC02460B462046294674
:100B0000FFF70AFB8046894632463B463046394667
:100B1000FFF7BAFC04460D4642464B46404649465E
:100B2000FFF7B2FC02460B4620462946FFF7F6FACD
:100B300001F064FB04460D4642464B4630463946BA
:100B4000FFF7CCFD01F084FB00F09AF900224F4B37
:100B5000FFF7E4FA82468B4622462B4600204C499A
:100B6000FFF7BCFD01F074FB06460F4622462B46FC
:100B700020462946FFF788FC39A3D3E90023FFF775
:100B8000CDFA01F03BFB04460D4600224FF08043B6
:100B900001F0C6FA34A3D3E90023FFF7BFFA34A368
:100BA000D3E90023FFF7B8FA804689460022394B83
:100BB00020462946FFF768FC02460B464046494658
:100BC000FFF78CFD01F084FA8046894630463946AD
:100BD00000F056F902460B4600202F49FFF79CFA19
:100BE00006460F464046494600F04AF902460B4683
:100BF00030463946FFF790FA06460F4622462B4606
:100C000020462946FFF740FC02460B461AA1D1E9CF
:100C10000001FFF781FA1AA3D3E90023FFF75EFD75
:100C200001F056FA00F02CF902460B4600201A4952
:100C3000FFF772FA04460D4601225046594600F06D
:100C4000EFF802223046394600F0EAF80322204647
:100C5000294600F0E5F8BDE8F88F00BFAFF300804B
:100C60000000000000E49C40000000000020C5409F
:100C70000000000000A061400000000040FADD40DC
:100C80000000000000A4DC4000000020008056406E
:100C90000080454000006A40008066402DE9F04138
:100CA00088B000240494059406940794264B9A690E
:100CB00042F010029A619A6902F010020092009AC2
:100CC0009A6942F020029A619A6902F02002019228
:100CD000019A9A6942F008029A619A6902F0080240
:100CE0000292029A9A6942F004029A619B6903F0A7
:100CF00004030393039BDFF8548001224FF4005157
:100D0000404600F09FFB124D22464FF4004128461A
:100D100000F098FB4FF400530493012705970694C5
:100D20000226079604A9404600F07EFA4FF40043DD
:100D3000049305970694079604A9284600F074FAD0
:100D400008B0BDE8F08100BF001002400010014073
:100D5000000C014072B6FEE700B591B028220021D8
:100D600006A801F0CFF800230193029303930493A4
:100D70000593012206924FF4803307930A920222D0
:100D80000D920E934FF4E0130F9306A800F076FB3C
:100D900080B90F23019302210291002303934FF4A2
:100DA00080620492059301A800F09AFD20B911B069
:100DB0005DF804FBFFF7CEFFFFF7CCFF000000005B
:100DC00008B500F0A3F9FFF7C7FFFFF767FF00F0D2
:100DD000D7F800F00FF804A3D3E90023002004495A
:100DE000FFF772FEF7E700BF0000000000C05340AD
:100DF0000000344010B5094C0021204600F0B4FF3B
:100E00000421204600F0B0FF0821204600F0ACFF8E
:100E10000C21204600F0A8FF10BD00BF58010020A3
:100E200010B514460022124BFFF758FC0022114B5C
:100E3000FFF72AFB0022104BFFF770F9FFF736FD92
:100E4000621E032A06D8DFE802F002060A0E0B4BE8
:100E50001B68586310BD094B1B689863FAE7074B82
:100E60001B68D863F6E7054B1B681864F2E700BF00
:100E700000806640000044400000244058010020EB
:100E800008B505A3D3E90023FFF728FC0022044B93
:100E9000FFF7FAFA08BD00BFA7E8482EFF21094076
:100EA0000080664082B00E4B9A6942F001029A615E
:100EB0009A6902F001020092009ADA6942F08052C7
:100EC000DA61DB6903F080530193019B054A5368A3
:100ED00023F0E06343F00073536002B0704700BF3B
:100EE0000010024000000140FEE7FEE7FEE7FEE7DB
:100EF000FEE770477047704708B500F019F908BD64
:100F0000704700000268094B9A4200D0704782B0D7
:100F100003F564439A6942F400629A619B6903F4A1
:100F200000630193019B02B0704700BF002C014099
:100F300000B587B0002302930393049305930268DE
:100F40000D4B9A4202D007B05DF804FB03F56443F1
:100F50009A6942F004029A619B6903F004030193C9
:100F6000019B4FF47063029302230393059302A93C
:100F7000024800F059F9E6E7002C01400008014062
:100F800010B592B000241094119409940A940B9413
:100F90000C940D940E940F942022214601A800F089
:100FA000B1FF3248324B036040F60F634360846008
:100FB00040F28F13C360046144618023836100F0B9
:100FC000FBFD00283CD100231093119310A9274862
:100FD00000F038FF002836D16023099300220A92DE
:100FE0000B920C920D920E920F9209A91F4800F0DD
:100FF0003DFE58BB042209A91C4800F037FE40BB47
:10100000082209A9194800F031FE28BB0C2209A9C1
:10101000164800F02BFE10BB0023019302930393AC
:10102000049305934FF400520692089301A90F48C8
:1010300000F03EFFB0B90D48FFF77AFF12B010BDC7
:10104000FFF788FEBFE7FFF785FEC5E7FFF782FEE3
:10105000D0E7FFF77FFED3E7FFF77CFED6E7FFF789
:1010600079FED9E7FFF776FEE5E700BF58010020DB
:10107000002C0140FFF744FF0B480C490C4A0023A9
:1010800002E0D458C4500433C4188C42F9D3094A3E
:10109000094C002301E013600432A242FBD300F0AC
:1010A00087FFFFF78DFE7047000000203C01002005
:1010B000743900083C01002074040020FEE70000A1
:1010C00010B504460E4B1A784FF47A73B3FBF2F363
:1010D0000C4A1068B0FBF3F000F092F868B90F2CDE
:1010E00001D901200AE0002221464FF0FF3000F034
:1010F00077F8054B1C60002000E0012010BD00BF08
:101100000C000020080000201000002008B5074A4D
:10111000136843F010031360032000F04FF80F2012
:10112000FFF7CEFFFFF7BEFE002008BD0020024003
:10113000034A1168034B1B780B441360704700BFD0
:10114000A00100200C000020014B1868704700BF70
:10115000A0010020002808DB0901C9B200F16040AD
:1011600000F5614080F80013704700F00F0009019E
:10117000C9B2014B1954704714ED00E000B500F0FE
:101180000700C0F1070CBCF1040F28BF4FF0040C9E
:10119000031D062B0FD9C31E4FF0FF3E0EFA0CF0B5
:1011A00021EA000199400EFA03FE22EA0E0241EA0A
:1011B00002005DF804FB0023EEE70000074AD36855
:1011C00023F4E0631B041B0C000200F4E060034303
:1011D00043F0BF6343F40033D360704700ED00E099
:1011E00010B50446054BD868C0F30220FFF7C6FFD0
:1011F00001462046FFF7AEFF10BD00BF00ED00E046
:101200000138B0F1807F0BD24FF0E0235861054ADE
:10121000F02182F823100020986107221A6170479C
:101220000120704700ED00E070B582B00024A446B4
:10123000A1E07E4DAB4214D00CD8A5F58015AB4291
:101240000FD005F57025AB420BD0A5F58015AB424C
:1012500010D106E0764DAB4203D005F58035AB42A8
:1012600008D18B68002B50D0012B49D04261082453
:1012700000E0CC68BEF1FF0F49D806464FEA8C0269
:1012800033680F25954023EA050304FA02F213435D
:1012900033604B6813F0805F6BD0664B9A6942F005
:1012A00001029A619B6903F001030193019B4FEADC
:1012B0009C02951C604B53F825600CF00305AD00B3
:1012C0000F23AB4026EA03065C4B984226D003F579
:1012D0008063984200F08C8003F58063984200F0B0
:1012E000898003F58063984216D0042317E0CC6808
:1012F0000434BFE7CC680834BCE7CC680C34B9E7E9
:1013000002610824B6E70024B4E70424B2E7061D0E
:10131000ACF108029200B3E7032300E00023AB40E6
:1013200033430232444D45F822304B6813F4801F9A
:1013300062D0434A936843EA0E0393604B6813F408
:10134000001F5FD03E4AD36843EA0E03D3604B6868
:1013500013F4003F5CD03A4A536843EA0E035360EB
:101360004B6813F4803F59D0354A136843EA0E03A3
:1013700013600CF1010C0B6833FA0CF254D001220B
:1013800002FA0CF203EA020E32EA0303F1D14B68CF
:10139000122B3FF64EAF122B3FF66CAF01A555F85E
:1013A00023F000BF6312000873120008F512000852
:1013B000071300087512000875120008751200085E
:1013C00075120008751200087512000875120008E1
:1013D00075120008751200087512000875120008D1
:1013E0007512000875120008EF120008FB120008C1
:1013F000012394E7022392E7114A936823EA0E033C
:1014000093609BE70E4AD36823EA0E03D3609EE7FE
:101410000B4A536823EA0E035360A1E7084A136896
:1014200023EA0E031360A4E702B070BD000022108F
:10143000000031100010024000000140000801408F
:10144000000401400AB1016170470904016170475D
:1014500082B0084B1B68084AA2FB03235B0A00FB0F
:1014600003F3019300BF019B5A1E0192002BF9D197
:1014700002B0704708000020D34D6210002800F031
:10148000F18170B582B00446036813F0010F2CD0CF
:10149000994B5B6803F00C03042B1DD0964B5B68E3
:1014A00003F00C03082B12D06368B3F5803F41D0E2
:1014B000002B55D103F1804303F504331A6822F45D
:1014C00080321A601A6822F480221A6037E08A4B50
:1014D0005B6813F4803FE7D0874B1B6813F4003F31
:1014E00003D06368002B00F0BF81236813F0020F64
:1014F00075D0814B5B6813F00C0F5FD07E4B5B683F
:1015000003F00C03082B54D02369002B00F08A80D1
:101510007A4B01221A60FFF717FE0546764B1B68CF
:1015200013F0020F75D1FFF70FFE401B0228F5D90B
:1015300003209EE1704A136843F4803313606368AC
:1015400043B3FFF701FE05466B4B1B6813F4003FE6
:10155000CBD1FFF7F9FD401B6428F5D9032088E1C2
:10156000B3F5A02F09D0644B1A6822F480321A60B8
:101570001A6822F480221A60E1E703F18043A3F5A0
:101580003C331A6842F480221A601A6842F48032AE
:101590001A60D4E7FFF7D8FD0546574B1B6813F4D4
:1015A000003FA2D0FFF7D0FD401B6428F5D90320EF
:1015B0005FE1514B5B6813F4803FA5D14E4B1B6834
:1015C00013F0020F03D02369012B40F04F814A4AE8
:1015D000136823F0F803616943EAC10313602368C9
:1015E00013F0080F33D0A369002B5CD0434B0122CA
:1015F000C3F88024FFF7A8FD05463F4B5B6A13F054
:10160000020F21D1FFF7A0FD401B0228F5D90320CE
:101610002FE1394A136823F0F803616943EAC103F3
:101620001360DCE7354B00221A60FFF78DFD05469D
:10163000314B1B6813F0020FD1D0FFF785FD401B23
:101640000228F5D9032014E10120FFF701FF2368E8
:1016500013F0040F00F09680274BDB6913F0805FD6
:1016600034D1254BDA6942F08052DA61DB6903F04C
:1016700080530193019B0125214B1B6813F4807F4C
:1016800026D0E368012B3DD0002B53D103F18043DA
:1016900003F504331A6A22F001021A621A6A22F070
:1016A00004021A6233E0154B0022C3F88024FFF7CE
:1016B0004BFD0546104B5B6A13F0020FC7D0FFF7D6
:1016C00043FD401B0228F5D90320D2E00025D3E7D3
:1016D0000B4A136843F480731360FFF735FD064629
:1016E000074B1B6813F4807FCBD1FFF72DFD801BC8
:1016F0006428F5D90320BCE00010024000004242FB
:10170000007000405F4A136A43F001031362E3680C
:1017100033B3FFF719FD06465A4B1B6A13F0020F4D
:101720002FD1FFF711FD801B41F288339842F3D986
:1017300003209EE0052B09D0524B1A6A22F00102C9
:101740001A621A6A22F004021A62E0E74D4B1A6A22
:1017500042F004021A621A6A42F001021A62D6E7E3
:10176000FFF7F2FC0646474B1B6A13F0020F08D046
:10177000FFF7EAFC801B41F288339842F3D903203B
:1017800077E0E5B9E369002B72D03E4A526802F077
:101790000C02082A56D0022B17D03B4B00221A66A7
:1017A000FFF7D2FC0446374B1B6813F0007F47D08D
:1017B000FFF7CAFC001B0228F5D9032059E0314A83
:1017C000D36923F08053D361DCE72F4B00221A66E4
:1017D000FFF7BAFC05462B4B1B6813F0007F06D0C1
:1017E000FFF7B2FC401B0228F5D9032041E0236A31
:1017F000B3F5803F1AD023494B6823F47413226A4F
:10180000606A024313434B601F4B01221A66FFF7C5
:101810009BFC04461B4B1B6813F0007F0ED1FFF7A7
:1018200093FC001B0228F5D9032022E0154A5368D7
:1018300023F40033A1680B435360DCE7002018E079
:10184000002016E0012B16D00E4B5B6803F48031AC
:10185000226A914211D103F47013626A93420ED14D
:10186000002006E001207047012002E0012000E096
:10187000002002B070BD0120FBE70120F9E7012044
:10188000F7E700BF00100240000042420F4B5B68C8
:1018900003F00C02082A01D00D487047C3F38342BD
:1018A0000C49885C13F4803F0BD0084B5B68C3F392
:1018B0004043094AD35C064A02FB00F0B0FBF3F058
:1018C0007047064B03FB00F0704700BF001002405A
:1018D00000127A00043900080039000800093D00B0
:1018E000002800F0A08070B50D460446524B1B68DE
:1018F00003F007038B420BD24F4A136823F0070310
:101900000B431360136803F007038B4240F08D8094
:10191000236813F0020F17D013F0040F04D0474AC6
:10192000536843F4E0635360236813F0080F04D056
:10193000424A536843F460535360404A536823F06B
:10194000F003A1680B435360236813F0010F31D0FB
:101950006368012B20D0022B25D0384A126812F080
:10196000020F64D035494A6822F0030213434B60EA
:10197000FFF7EAFB0646314B5B6803F00C03626835
:10198000B3EB820F16D0FFF7DFFB801B41F28833E9
:101990009842F0D9032045E0284A126812F4003F2B
:1019A000E0D101203EE0254A126812F0007FD9D133
:1019B000012037E0204B1B6803F00703AB420AD934
:1019C0001D4A136823F007032B431360136803F0C9
:1019D0000703AB422DD1236813F0040F06D0174A3A
:1019E000536823F4E063E1680B435360236813F00A
:1019F000080F07D0114A536823F46053216943EA62
:101A0000C1035360FFF742FF0C4B5B68C3F3031342
:101A10000B4AD35CD8400B4B18600B4B1868FFF790
:101A20004FFB002070BD012070470120FAE7012024
:101A3000F8E70120F6E700BF002002400010024056
:101A4000F0380008080000201000002030B4026ABE
:101A5000036A23F0010303624568836923F073037B
:101A60000C681C4322F002028B6813430B4A90421D
:101A700006D0456084614A684263036230BC7047A7
:101A800023F00803CA681A4322F0040325F44075C2
:101A90004A692A438D691543EBE700BF002C0140DA
:101AA00030B4036A026A22F4807202624468C26936
:101AB00022F073020D68154323F400738A6843EA29
:101AC00002230D4A904206D04460C5614A68C26351
:101AD000036230BC704723F40063CA6843EA022300
:101AE00023F4806324F440544A6944EA02148A6966
:101AF00044EA0214E8E700BF002C014030B4036A56
:101B0000026A22F4805202624468C26922F4E64208
:101B10000D6842EA052223F400538D6843EA053339
:101B2000074DA84206D04460C2614A68026403625D
:101B300030BC704724F480444D6944EA8514F2E7D0
:101B4000002C014003681B4A90420AD0B0F1804F3C
:101B500007D0A2F59432904203D002F58062904201
:101B600003D123F070034A681343124A90420AD00B
:101B7000B0F1804F07D0A2F59432904203D002F525
:101B80008062904203D123F44073CA68134323F068
:101B900080034A69134303608B68C3620B688362E6
:101BA000044B984202D00123436170470B690363E1
:101BB000F9E700BF002C014040B310B5044690F88F
:101BC0003D30F3B1022384F83D30214651F8040B37
:101BD000FFF7B8FF012384F8463084F83E3084F8DC
:101BE0003F3084F8403084F8413084F8423084F843
:101BF000433084F8443084F8453084F83D30002088
:101C000010BD80F83C30FFF77DF9DBE7012070471D
:101C100030B4036A026A22F01002026244688269E8
:101C200022F4E6420D6842EA052223F020038D6883
:101C300043EA05130C4DA84206D0446082614A680D
:101C40008263036230BC704723F08003CD6843EAAF
:101C5000051323F0400324F440644D6944EA8504ED
:101C60008D6944EA8504E8E7002C014038B590F816
:101C70003C30012B66D004460D46012380F83C30F1
:101C80000C2A5AD8DFE802F0075959591B595959FB
:101C90003059595944000068FFF7D8FE226893690B
:101CA00043F0080393612268936923F0040393616E
:101CB0002268936929690B43936100203EE0006824
:101CC000FFF7A6FF2268936943F4006393612268DB
:101CD000936923F48063936122689369296943EAD5
:101CE00001239361002029E00068FFF7D9FE2268F4
:101CF000D36943F00803D3612268D36923F0040356
:101D0000D3612268D36929690B43D361002015E0B0
:101D10000068FFF7F3FE2268D36943F40063D361E0
:101D20002268D36923F48063D3612268D369296967
:101D300043EA0123D361002000E00120002384F85E
:101D40003C3038BD0220FCE701F01F014FF0010CD0
:101D50000CFA01FC036A23EA0C030362036A8A405B
:101D6000134303627047000010B50446084651BB98
:101D700094F83E30DBB2013B18BF0123002B5BD14E
:101D8000002839D1022384F83E3001220146206820
:101D9000FFF7DAFF23682A4A93423DD02368284A96
:101DA00093423ED0B3F1804F3BD0A2F594329342A0
:101DB00037D002F58062934233D01A6842F00102B4
:101DC0001A60002039E0042908D008290DD094F8C1
:101DD0004130DBB2013B18BF0123CFE794F83F301D
:101DE000DBB2013B18BF0123C8E794F84030DBB2F7
:101DF000013B18BF0123C1E7042805D0082807D0FC
:101E0000022384F84130C0E7022384F83F30BCE766
:101E1000022384F84030B8E75A6C42F400425A6416
:101E2000BCE79A6802F00702062A07D01A6842F057
:101E300001021A60002000E0012010BD0020FCE734
:101E4000002C014090F83C20012A2CD010B403460D
:101E5000012280F83C20022280F83D200268506870
:101E6000946820F0700C086840EA0C0050601A6812
:101E70000E4882420AD0B2F1804F07D0A0F59430CC
:101E8000824203D000F58060824204D124F08004B5
:101E9000496821439160012283F83D20002083F8A6
:101EA0003C0010BC70470220704700BF002C01406E
:101EB000024690F83C30012B21D0012380F83C30C1
:101EC000CB6823F440738868034323F48063486835
:101ED000034323F400630868034323F48053086931
:101EE000034323F400534869034323F48043C9693F
:101EF0000B4311684B64002082F83C0070470220BD
:101F00007047000070B5860747D0541E002A3ED0A7
:101F10000346CAB201E0013C39D303F8012B9D0707
:101F2000F9D1032C2CD9CDB205EB05250F2C1A467F
:101F300005EB054534D9A4F1100C2CF00F0603F184
:101F4000100EB6444FEA1C1CC2E90055C2E9025506
:101F500010327245F8D10CF1010214F00C0F03EBB2
:101F6000021204F00F0C13D0ACF1040323F00303AE
:101F70000433134442F8045B9342FBD10CF0030496
:101F80002CB1C9B21C4403F8011BA342FBD170BDA4
:101F900064461346002CF4D1F9E703461446C0E723
:101FA000A446E1E7014B1868704700BF1400002009
:101FB00070B50F4B0F4DAB42A3EB050607D00024C5
:101FC000B61055F8043B01349847A642F9D801F001
:101FD00081FC094D094B5E1BAB424FEAA60606D0B9
:101FE000002455F8043B01349847A642F9D870BD47
:101FF0006839000868390008683900087039000835
:10200000704700BF704700BF024B13B1024800F099
:1020100005B8704700000000292000080023014691
:102020001A46184600F014B838B5074D074C2C1B5B
:10203000A41005D0013C55F8043D9847002CF9D177
:10204000BDE8384001F04CBC743900087039000814
:102050002DE9F8431B4D0646286898460F469146E1
:10206000FFF7CEFF184B1C681CB3286865681F2D4E
:1020700022DC4EB96B1C0235636044F82570FFF713
:10208000C1FF0020BDE8F883012304EB8501C1F8FE
:102090008890D4F88821AB401A43022EC4F88821D6
:1020A000C1F80881E6D1D4F88C211A43C4F88C21F8
:1020B000E0E7064C1C60D8E7FFF7A4FF4FF0FF30C5
:1020C000E0E700BF38010020E0020020E402002029
:1020D000F8B504460D4600F053FB224606460F466F
:1020E0002B4620462946FEF791FC40B9204629465A
:1020F00000F046FA0022084BFEF77EFC10B930468D
:102100003946F8BDFFF74EFF2122034603481A6007
:10211000BDE8F84000F03EBA0000F03F1439000876
:102120002DE9F84314461D468046894600F080FD9F
:10213000224606460F462B4620462946FEF766FCF9
:1021400078B90022002340464946FEF72DFCD8B15D
:102150000022002320462946FEF726FC28B100264F
:10216000254F30463946BDE8F8832046294600F021
:102170000BFA0028F5D02046294600220023FEF75E
:102180001DFC0028EDD02CE03046394600F0FCF96B
:10219000A0B10022002330463946FEF705FC002896
:1021A000DFD04046494600F0EFF90028D9D020465C
:1021B000294600F0E9F90028D3D012E0404649460C
:1021C00000F0E2F90028E4D02046294600F0DCF9CE
:1021D0000028DED032463B4630463946FEF716FC34
:1021E00020B9FFF7DFFE22230360BAE7FFF7DAFE2C
:1021F00021230360B5E700BF0000F03FF8B50446B7
:102200000D4600F0CDF9224606460F462B462046E5
:102210002946FEF7FBFB30B9204629460022002361
:10222000FEF7CCFB10B930463946F8BDFFF7BAFED1
:10223000002200232121016010461946FEF74EFAC4
:1022400006460F4630463946F8BD00BF0000000084
:102250002DE9F84FC04B21F000469E4204460D4642
:102260008A4616D9BD4B9E420BD808D0BAF1000F52
:1022700040F3C2809CA1D1E90001BDE8F88F00289D
:10228000F4D022462B4620462946FDF747FFBDE8FD
:10229000F88FB34B9E4200F2B480A3F1DE739E42EE
:1022A00040F29B804FF0FF3B22462B4620462946BA
:1022B000FEF7EAF802460B4680468946FEF7E4F848
:1022C0008BA3D3E9002306460F46FEF7DDF88AA369
:1022D000D3E90023FDF722FF32463B46FEF7D4F850
:1022E00087A3D3E90023FDF719FF32463B46FEF7EB
:1022F000CBF885A3D3E90023FDF710FF32463B4618
:10230000FEF7C2F882A3D3E90023FDF707FF3246A8
:102310003B46FEF7B9F880A3D3E90023FDF7FEFEA4
:1023200042464B46FEF7B0F87DA3D3E90023804632
:10233000894630463946FEF7A7F87BA3D3E9002348
:10234000FDF7EAFE32463B46FEF79EF878A3D3E956
:102350000023FDF7E1FE32463B46FEF795F876A3F3
:10236000D3E90023FDF7D8FE32463B46FEF78CF852
:1023700073A3D3E90023FDF7CFFE32463B46FEF7B9
:1023800083F802460B4640464946FDF7C7FE224603
:102390002B46FEF779F8BBF1FF3F02460B4659D0BA
:1023A000704B714E03EBCB03D3E90023FDF7B4FE72
:1023B00022462B46FDF7B0FE06EBCB0602460B4647
:1023C000D6E90001FDF7A8FEBAF1000FBFF65FAF36
:1023D00001F100431946BDE8F88F5BA3D3E9002360
:1023E000FDF79CFE0022614BFEF706FB00283FF440
:1023F00059AF204629464AE755A1D1E90001BDE879
:10240000F88F00F0BDF85A4B04469E420D4627D87F
:10241000A3F550239E424ED802460B46FDF77EFEA2
:102420000022524BFDF778FE02460B462046294615
:1024300014461D4600224FF08043FDF76FFE024612
:102440000B4620462946FEF749F94FF0000B04469B
:102450000D4629E720462946FDF75EFEBDE8F88FC8
:10246000444B9E421CD20022434BFDF755FE0246D0
:102470000B462046294614461D4600223E4BFEF7D9
:1024800003F80022394BFDF749FE02460B46204671
:102490002946FEF723F94FF0020B04460D4603E7E9
:1024A00002460B4600203549FEF718F94FF0030BA2
:1024B00004460D46F8E600222C4BFDF72DFE0246A1
:1024C0000B462046294614461D460022274BFDF7A1
:1024D00025FE02460B4620462946FEF7FFF84FF040
:1024E000010B04460D46DFE6182D4454FB21F93F4D
:1024F00011DA22E33AAD903FEB0D76244B7BA93FF6
:10250000513DD0A0660DB13F6E204CC5CD45B73FC3
:10251000FF8300922449C23F0D5555555555D53F6F
:102520002F6C6A2C44B4A2BF9AFDDE522DDEAD3F63
:102530006D9A74AFF2B0B33F711623FEC671BC3F03
:10254000C4EB98999999C93F9C7500883CE4377E03
:10255000182D4454FB21F9BFFFFF0F440000F07F0A
:10256000FFFFDB3F18390008383900080000F03F52
:10257000FFFFF23F008003400000F83F0000F0BF83
:1025800021F000431946704741F0004000F58010EB
:10259000C00F704700200149704700BF0000F87F5E
:1025A0002DE9F84F724D06468D430F4600F0A4808A
:1025B00000290C460246034656DD081500F0C78088
:1025C000C4F31302C107A0F2FF3742F4801203D410
:1025D000D90F01EB42025B00002616244FF40011D4
:1025E000B446520002EBD3727F105B000CEB01008B
:1025F00090424FEAD3754FEA430303DC00EB010C32
:10260000121A0E44013C05EB42024FEA5101EDD192
:1026100020254FF00040A0460AE03CD0510001EBDD
:10262000D371013D0A464FEA43034FEA50003ED0C2
:10263000944508EB000EF0DABEF1000F0EEB000837
:102640000CDBE146A2EB0C01CC469E4588BF01F1B4
:10265000FF314900A3EB0E030444E0E7B8F1000F9B
:10266000EFDB0CF10109EDE721F0004505433DD01A
:10267000002964D1DA0A153C5B05002AFAD0D6029B
:1026800020461946144663D520254FF0FF32E94015
:10269000801A0C4394E79E4502D94FEA4C01BEE7ED
:1026A000BEF1000F0EEB000822DB0021D2E7194338
:1026B00012D0DFF8C0A0DFF8C0B0DAE90001DBE932
:1026C0000023FDF729FDDAE9008902460B46404662
:1026D0004946FEF77DF9C8B96508731003F17F53C9
:1026E00003F5001303EB075145EAC670BDE8F88F08
:1026F000B8F1000FB5DAD8E702460B46FDF7C4FE85
:1027000032463B46FDF70AFDBDE8F88FB4F1FF3FC6
:10271000DAE90001DBE9002326D0DAE90089FDF7D8
:10272000FDFC02460B4640464946FEF747F9E8B134
:10273000A31C04F1020508BF01366D08CDE70B4666
:10274000FDF7EAFC02460B46FDF7C8FFCEE731462F
:1027500000236400E5021A4603F10103F9D5C3F131
:10276000200501FA03F392E70136B6E70134B3E737
:102770000000F07F603900085839000800000000B0
:102780002DE9F84FC44E21F00043B34204460D46F4
:102790000DD903F1404303F58013034340F0B980A2
:1027A000002940F3C08000200021BDE8F88FBB4E17
:1027B000B34208D8BA4A934200F2BA809CA1D1E948
:1027C0000001BDE8F88F0029C0F2708102460B4677
:1027D0000020B449FDF7A0FC0022B34BFDF754FEE6
:1027E00004460D46FFF7DCFE93A3D3E90023894698
:1027F000804629462046FDF747FE91A3D3E90023F2
:10280000FDF78CFC22462B46FDF73EFE8EA3D3E956
:102810000023FDF781FC22462B46FDF735FE8CA3F5
:10282000D3E90023FDF77AFC22462B46FDF72CFE68
:1028300089A3D3E90023FDF76FFC22462B46FDF761
:1028400023FE87A3D3E90023FDF768FC22462B462D
:10285000FDF71AFE84A3D3E9002382468B46204667
:102860002946FDF711FE82A3D3E90023FDF754FCAE
:1028700022462B46FDF708FE7FA3D3E90023FDF790
:102880004DFC22462B46FDF7FFFD7DA3D3E9002337
:10289000FDF742FC22462B46FDF7F6FD0022814B58
:1028A000FDF73CFC02460B4650465946FDF716FF25
:1028B00042464B46FDF7E8FD002682468B463246EF
:1028C0004B4630464946FDF7DFFD02460B462046A3
:1028D0002946FDF721FC324604460D464B4640464C
:1028E0004946FDF71BFC02460B4620462946FDF7EC
:1028F000F5FE02460B4650465946FDF70FFC3246A0
:102900004B46FDF70BFC02460B46FDF707FCBDE806
:10291000F88F02460B46FDF7FFFB02460B46FDF71C
:10292000DDFEBDE8F88F58A1D1E90001BDE8F88FC0
:1029300002460B46FDF7A8FD3FA3D3E90023064658
:102940000F46FDF7A1FD3EA3D3E90023FDF7E6FB0B
:1029500032463B46FDF798FD3BA3D3E90023FDF744
:10296000DBFB32463B46FDF78FFD39A3D3E900235D
:10297000FDF7D4FB32463B46FDF786FD36A3D3E98F
:102980000023FDF7C9FB32463B46FDF77DFD34A32E
:10299000D3E90023FDF7C2FB32463B46FDF774FD49
:1029A00031A3D3E900238046894630463946FDF7F6
:1029B0006BFD2FA3D3E90023FDF7AEFB32463B4668
:1029C000FDF762FD2CA3D3E90023FDF7A7FB3246F8
:1029D0003B46FDF759FD2AA3D3E90023FDF79CFBF5
:1029E00032463B46FDF750FD00222E4BFDF796FB8D
:1029F00002460B4640464946FDF770FE22462B46EE
:102A0000FDF742FD02460B4621A1D1E90001FDF789
:102A100083FB02460B4620462946FDF77DFB024616
:102A20000B4603A1D1E90001FDF776FBBDE8F88F65
:102A3000182D4454FB21F93F09F7FD0DE13D023FFC
:102A400088B20175E0EF493F3B8F68B52882A43F0B
:102A50005544880E55C1C93F7D6FEB0312D6D43F54
:102A6000555555555555C53F82922EB1C5B8B33F02
:102A700059018D1B6C06E63FC88A599CE52A004027
:102A80004B2D8A1C273A0340182D4454FB21094042
:102A9000075C143326A6913CFFFFEF3FFFFFDF3FAB
:102AA0000000603C0000F03F0000E03F00225E4B71
:102AB000FDF734FB00225D4BFDF7E6FC42A3D3E9B2
:102AC000002304460D46FDF7DFFC41A3D3E90023B4
:102AD000FDF724FB22462B46FDF7D6FC3EA3D3E9A7
:102AE0000023FDF719FB22462B46FDF7CDFC3CA346
:102AF000D3E90023FDF712FB22462B46FDF7C4FC69
:102B000039A3D3E90023FDF707FB22462B46FDF747
:102B1000BBFC37A3D3E90023FDF700FB22462B467D
:102B2000FDF7B2FC34A3D3E9002306460F46204646
:102B30002946FDF7A9FC32A3D3E90023FDF7ECFAFF
:102B400022462B46FDF7A0FC2FA3D3E90023FDF777
:102B5000E5FA22462B46FDF797FC2DA3D3E9002387
:102B6000FDF7DAFA22462B46FDF78EFC00222E4BAB
:102B7000FDF7D4FA8046894620462946FFF710FD26
:102B800004460D4642464B4630463946FDF7A6FD03
:102B900022462B46FDF778FC1FA3D3E90023FDF75F
:102BA000BBFA22462B46FDF7B9FA02460B46FDF763
:102BB000B5FA02460B461AA1D1E90001FDF7ACFABD
:102BC000BDE8F88FAFF3008009F7FD0DE13D023F4E
:102BD00088B20175E0EF493F3B8F68B52882A43F7A
:102BE0005544880E55C1C93F7D6FEB0312D6D43FC3
:102BF000555555555555C53F82922EB1C5B8B33F71
:102C000059018D1B6C06E63FC88A599CE52A004095
:102C10004B2D8A1C273A0340075C143326A6913CAF
:102C2000182D4454FB2109400000F03F0000E03F14
:102C30002DE9F04F23F000470D4657EA0201924676
:102C40009B46044693B010D12319814885F4002295
:102C500052419942904121D252465B462046294634
:102C6000FDF75CFA13B0BDE8F08F9946794B25F07B
:102C7000004199422E460090029114D9009B06F122
:102C8000404606F580161E43E6D153467049DB18D0
:102C90008BF4002252419E429141DDD300206E49C7
:102CA00013B0BDE8F08F14D09F42E7D8029B00F02C
:102CB000A580002E15DB002A40F0B88066498F42BF
:102CC00040F0CE83B9F1000FC0F2B584204629460A
:102CD000C8E70028C0D18F42BED800F0F283029B23
:102CE000E7E75E498F4200F2B5835D498F423DD8E8
:102CF000002A40F0C483B9F1804F30D0904620467E
:102D000029460493FFF73CFC009A049B002A4DD00F
:102D1000F20F013A52EA080C00F09680002408F104
:102D2000FF3858EA020814BF4B4D4E4DB7F1844F9F
:102D3000CDE9064540F29A804B4B029A9F42484BA0
:102D400040F2F6839A4200F28784B9F1000FC0F294
:102D50008784002013B0BDE8F04F00F0AFBD2246DD
:102D60002B4620462946FDF78FFB7BE73915A1F25C
:102D7000FF31142940F34684C1F1340122FA01F0F5
:102D800000FA01F1914200F0AF84002A40F077830D
:102D9000B9F1804F0493E2D020462946FFF7F0FBBB
:102DA000009A049B002A4FD1DDF800802A4A26F0C1
:102DB000404C944502D0029A002AA9D1B9F1000FE3
:102DC00005DA02460B4600202349FDF787FC002E5A
:102DD000BFF648AF029B03F1404B0BF5801B5BEA4B
:102DE000080B40F0308402460B4610461946FDF7AA
:102DF00093F902460B46FDF771FC33E7002A7FF496
:102E00003DAF029B009A03F1404303F58013134347
:102E10003FF444AF124B029A9A4240F2E683B9F172
:102E2000000FC0F25084504659461BE74FF000088F
:102E3000204629460493FFF7A3FB009A049B002A2F
:102E4000B4D0F20F013A69E722462B46CDE700BF26
:102E50000000F0FF0000F07F0000F03FFFFF3F4365
:102E6000FFFFEF3F0000F0BF0000F043D04A3240C8
:102E7000002A40F02A83CF4B0022FDF705FB6FF0BC
:102E800034040B461A15A2F2FF321519CA4AC3F3CD
:102E9000130343F07F5493420B9544F4401407DD31
:102EA000C64A934240F3E28301350B95A4F58014A2
:102EB0000022002300260025C14FCDE90823CDE9DB
:102EC0000467CDE91023DDE9042321468046FDF7A0
:102ED00023F9DDE90423A14606460F464046214674
:102EE000CDE90C89FDF71AF902460B460020B449DA
:102EF000FDF7F4FB02460B4630463946CDE90E237A
:102F0000FDF7C2FA80468946641044F0005404F587
:102F1000002359190D464A46414600230020CDE9B9
:102F200000120093044602462B46CDE90289DDE9F2
:102F3000008940464946FDF7A7FA02460B4630464F
:102F40003946FDF7E9F8DDE9042306460F46204639
:102F50002946FDF7E1F802460B46DDE90C01FDF7D5
:102F6000DBF842464B46FDF78FFA02460B463046E9
:102F70003946FDF7D1F8DDE90E23FDF785FADDE9E5
:102F80000245CDE9040122462B4620462946FDF79D
:102F90007BFA75A3D3E9002304460D46FDF774FAC6
:102FA00073A3D3E90023FDF7B9F822462B46FDF7BA
:102FB0006BFA71A3D3E90023FDF7B0F822462B4644
:102FC000FDF762FA6EA3D3E90023FDF7A7F82246C6
:102FD0002B46FDF759FA6CA3D3E90023FDF79EF8C1
:102FE00022462B46FDF750FA69A3D3E90023FDF7EB
:102FF00095F8224606460F462B4620462946FDF701
:1030000043FA02460B4630463946FDF73DFA044680
:103010000D46DDE9020142464B46FDF77FF8DDE94A
:103020000423FDF731FA22462B46FDF777F8424696
:1030300006460F464B4640464946FDF725FA002214
:10304000604B04460D46FDF769F832463B46CDE934
:103050000C67FDF763F800260F4632463B464046B4
:103060004946FDF711FA0022804689463046394626
:10307000544BFDF751F822462B46FDF74DF802461A
:103080000B46DDE90C01FDF747F8DDE90223FDF70A
:10309000FBF9324604460D46DDE904013B46FDF7E7
:1030A000F3F902460B4620462946FDF737F8064657
:1030B0000F46002432463B4640464946FDF72EF86F
:1030C00035A3D3E9002320460D46FDF7DDF942463E
:1030D0004B468046894620462946FDF71DF80246A4
:1030E0000B4630463946FDF717F82DA3D3E90023E8
:1030F000FDF7CAF902460B462046294614461D46EE
:1031000029A3D3E90023FDF7BFF902460B46204669
:103110002946FDF703F8DDE91023FCF7FFFF04461D
:103120000B980D46FDF746F906460F4622462B46FC
:1031300040464946CDE90289FCF7F0FFDDE9082366
:10314000FCF7ECFF32463B46FCF7E8FF0020324636
:103150003B4680468946FCF7DFFFDDE90823FCF7A4
:10316000DBFFDDE902232FE0EF4E454A287ECA3F10
:1031700065DBC9934A86CD3F01411DA96074D13FEB
:103180004D268F515555D53FFFAB6FDBB66DDB3FFD
:10319000033333333333E33F000000E009C7EE3F2E
:1031A000FD033ADC09C7EE3FF5015B14E02F3EBE9C
:1031B0000000F07F000040438E98030079B60B00BA
:1031C0000000F03F00000840FCF7A6FF02460B4657
:1031D00020462946FCF7A0FF0023CDE900AB009371
:1031E000DDE90067CDE9020132463B4650465946CB
:1031F000FCF792FF42464B46FDF746F9524604461D
:103200000D46DDE902015B46FDF73EF902460B463D
:1032100020462946FCF782FF04460D4632463B46CF
:1032200040464946CDE90245FDF72EF906460F46D0
:10323000204629463B463246FCF770FFB64B044613
:1032400099420D46884640F31C8101F13F4303F546
:10325000E003034340F01B829DA3D3E90023DDE993
:103260000201FCF75BFF02460B4620462946144646
:103270001D4632463B46FCF74FFF02460B462046B2
:103280002946FDF7B9FB002840F001824FF4007396
:1032900000204344C3F30A52A04CA2F2FF3214416F
:1032A000C3F3130AC2F1140204EA03014AF4801AB8
:1032B0000B464AFA02FAB8F1000F02463946304688
:1032C000B8BFCAF1000AFCF727FF06460F46DDE942
:1032D000020132463B46FCF721FF0D464FEA0A5BEE
:1032E00000247DA3D3E9002320462946FDF7CCF82E
:1032F0003246804689463B4620462946FCF70CFF6D
:1033000002460B46DDE90201FCF706FF74A3D3E990
:103310000023FDF7B9F802460B462046294614461D
:103320001D4671A3D3E90023FDF7AEF802460B4614
:1033300020462946FCF7F2FE06460F4632463B463B
:1033400040464946FCF7EAFE42464B4604460D46D7
:10335000FCF7E2FE02460B4630463946FCF7DCFE3F
:103360002246804689462B4620462946FDF78CF8A2
:103370005FA3D3E9002306460F46FDF785F85EA359
:10338000D3E90023FCF7C8FE32463B46FDF77CF844
:103390005BA3D3E90023FCF7C1FE32463B46FDF7B1
:1033A00073F859A3D3E90023FCF7B6FE32463B4637
:1033B000FDF76AF856A3D3E90023FCF7AFFE3246C7
:1033C0003B46FDF761F802460B4620462946FCF7CE
:1033D000A3FE06460F4632463B4620462946FDF7E9
:1033E00053F802460B463046394616461F46002221
:1033F0004FF08043FCF790FE02460B4630463946BC
:10340000FDF76CF9424606460F464B4620462946D4
:10341000FDF73AF842464B46FCF780FE02460B4663
:1034200030463946FCF778FE22462B46FCF774FE00
:1034300002460B4600203A49FCF76EFE0C465C44FF
:10344000B4F5801FC0F22D812146DDE90623FDF78A
:103450001BF807E44FF00208002A7FF4E9AC4EE4C1
:10346000B9F1804F3FF47BAC2E4989457FF446ACDF
:103470002046294613B0BDE8F04FFFF791B80493FA
:103480008AE4DFF8A4C021F00043634540F2CB801A
:10349000264B0B4403430AD132463B46FCF73CFE25
:1034A000DDE90223FDF79EFA00283FF4EFAEDDE9E7
:1034B000060100220023FDF781FA003818BF012021
:1034C00048E4002A7FF4C8ABA4E40024DAE400BF97
:1034D000FE822B654715973C00000000432EE63F17
:1034E000EF39FAFE422EE63F396CA80C615C20BE33
:1034F000D0A4BE726937663EF16BD2C541BDBB3EFA
:103500002CDE25AF6A56113F93BDBE166CC1663FD7
:103510003E5555555555C53FFFFF8F400000F0FF04
:103520000000F03F0000E03FFFCB904000346F3FD1
:103530009A42C0F0BA80029A8B4B9A424FF0000236
:1035400000F2C580884BFCF7E7FD7BA3D3E900239D
:1035500004460D46FCF798FF79A3D3E90023804683
:10356000894620462946FCF78FFF0022CDE900015D
:103570007E4B20462946FCF787FF02460B4672A188
:10358000D1E90001FCF7C8FD22462B46FCF77CFF81
:1035900002460B4600207649FCF7BEFD22462B462C
:1035A00006460F4620462946FCF76EFF02460B46AC
:1035B00030463946FCF768FF65A3D3E90023FCF7E2
:1035C00063FF02460B46DDE90001FCF7A5FD04465A
:1035D0000D464046494622462B46FCF79FFD0020FB
:1035E00042464B4680468946EEE5B9F1000F4FF062
:1035F00000004FF00001BFF635AB50460BF1004123
:10360000FFF730BB002A7FF43AAFC1F1140147FA4B
:1036100001F000FA01F1B9426DD053498F423FF4F5
:1036200051ABFFF768BB524A93427AD8DDE90023D9
:103630009346924654E622462B4600204A49FDF71F
:103640004DF8FFF70FBBB8F1010F7FF40BAB01F1A1
:1036500000431946FFF706BBB9F1000F7FF779ABBE
:10366000002013B0BDE8F04F00F02EB90022414B0E
:103670004FF48025CDE9042337A3D3E90023CDE916
:10368000082337A3D3E90023CDE910231BE400224C
:10369000DDE906010023FDF791F9003818BF01208C
:1036A000DFE7524600F068F8CFE60022DDE90601C8
:1036B0000023FDF783F9003818BF0120B9F1000F8E
:1036C000BFF648ABCDE700200021FFF7CBBA0023BF
:1036D000DDE90601FDF772F9003818BF0120B9F1E4
:1036E000000FBEDCFFF736BB9AB100F00100C0F15D
:1036F0000208FFF79DBB1C4A97423FF4E3AAB9F1C9
:10370000804F3FF42CAB00F00100C0F10208FFF73E
:10371000F6BAB9F1804F3FF422AB4FF00208FFF741
:10372000EEBA4FF480121B15A3F2FE3342FA03F3F4
:10373000AEE500BFAFF30080000000604715F73F23
:1037400044DF5DF80BAE543E555555555555D53FA4
:10375000FE822B654715F73F0000004003B8E23FAB
:1037600006D0CF43EBFD4C3E0000F03F0000D03FC1
:103770000000E03F0000F83F2DE9F0411646C1F39C
:103780000A52074688460B466ABB21F000430343B2
:1037900027D0334B0022FCF777FE324B07469E4280
:1037A00088463CDB0B46C1F30A52363A4CF25031A4
:1037B0008E4221DC164440F2FE7296421CDC002E42
:1037C00026DC16F1350F31DB23F0FF4121F4E00157
:1037D000363641EA0655002238462946224BFCF788
:1037E00053FEBDE8F08140F2FF7C6245DED1024627
:1037F000FCF794FCBDE8F081454615A3D3E900230E
:1038000063F31E0529461948FCF73EFEBDE8F0812A
:103810006FF31E53384643EA0651BDE8F0810EA30C
:10382000D3E90023FCF730FEBDE8F08108F0004446
:1038300044F0D27141F4B73107A3D3E900230C4817
:1038400041F01F01FCF720FECBE700BFAFF3008083
:103850009C7500883CE4377E59F3F8C21F6EA501C1
:1038600000005043B03CFFFF0000903C9C75008876
:1038700059F3F8C2D0B506460F461446FEF792FB40
:103880000346394630461C60D0BD00BF00B583B04A
:1038900080B1104603F10041CDE900011046194600
:1038A000DDE90023FCF7F0FD222203B05DF804EB14
:1038B000FFF7E0BF10461946EEE700BF00224FF0C9
:1038C0008053FFF7E3BF00BF00224FF0E043FFF754
:1038D000DDBF00BFF8B500BFF8BC08BC9E4670470E
:0C38E000F8B500BFF8BC08BC9E4670475D
:1038F00000000000000000000102030406070809A0
:103900000102000002030405060708090A0B0C0D5A
:103910000E0F101000000000E2652F227F2B7A3C72
:10392000075C143326A6813CBDCBF07A8807703C37
:10393000075C143326A6913C4FBB610567ACDD3FA5
:10394000182D4454FB21E93F9BF681D20B73EF3FC6
:10395000182D4454FB21F93F59F3F8C21F6EA501FD
:08396000000000000000F03F30
:0839680009200008A10A000873
:04397000790A0008C8
:1039740043000000000000000024F40001000000E7
:10398400100000001800002000000000A401002026
:103994000C0200207402002000000000000000005F
:1039A4000000000000000000000000000000000013
:1039B4000000000000000000000000000000000003
:1039C40000000000000000000000000000000000F3
:1039D40000000000000000000000000000000000E3
:1039E40000000000000000000000000000000000D3
:1039F40000000000000000000000000000000000C3
:103A040000000000000000000000000000000000B2
:103A140000000000000000000000000000000000A2
:103A240001000000000000000E33CDAB34126DE63F
:103A3400ECDE05000B0000000000000000000000A8
:103A44000000000000000000000000000000000072
:103A54000000000000000000000000000000000062
:103A64000000000000000000000000000000000052
:103A74000000000000000000000000000000000042
:103A84000000000000000000000000000000000032
:103A94000000000000000000000000000000000022
:0C3AA4000000000000000000DC02002018
:04000005080010756A
:00000001FF
