:020000040800F2
:1000000000500020350F0008A90D0008AB0D0008B6
:10001000AD0D0008AF0D0008B10D00080000000094
:10002000000000000000000000000000B30D000808
:10003000B50D000800000000B70D0008B90D00085C
:100040007D0F00087D0F00087D0F00087D0F000860
:100050007D0F00087D0F00087D0F00087D0F000850
:100060007D0F00087D0F00087D0F00087D0F000840
:100070007D0F00087D0F00087D0F00087D0F000830
:100080007D0F00087D0F00087D0F00087D0F000820
:100090007D0F00087D0F00087D0F00087D0F000810
:1000A0007D0F00087D0F00087D0F00087D0F000800
:1000B0007D0F00087D0F00087D0F00087D0F0008F0
:1000C0007D0F00087D0F00087D0F00087D0F0008E0
:1000D0007D0F00087D0F00087D0F00087D0F0008D0
:1000E0007D0F00087D0F00087D0F00080000000054
:1000F0000000000000000000000000000000000000
:0C01000000000000000000005FF808F1A3
:1001100081F0004102E000BF83F0004330B54FEAB8
:1001200041044FEA430594EA050F08BF90EA020F25
:100130001FBF54EA000C55EA020C7FEA645C7FEAB8
:10014000655C00F0E2804FEA5454D4EB5555B8BFDB
:100150006D420CDD2C4480EA020281EA030382EA4C
:10016000000083EA010180EA020281EA0303362DDE
:1001700088BF30BD11F0004F4FEA01314FF4801CB1
:100180004CEA113102D0404261EB410113F0004FC3
:100190004FEA03334CEA133302D0524263EB43037A
:1001A00094EA050F00F0A780A4F10104D5F1200E18
:1001B0000DDB02FA0EFC22FA05F2801841F1000173
:1001C00003FA0EF2801843FA05F359410EE0A5F147
:1001D00020050EF1200E012A03FA0EFC28BF4CF078
:1001E000020C43FA05F3C01851EBE37101F000452E
:1001F00007D54FF0000EDCF1000C7EEB00006EEB3B
:100200000101B1F5801F1BD3B1F5001F0CD34908C4
:100210005FEA30004FEA3C0C04F101044FEA44521B
:1002200012F5800F80F09A80BCF1004F08BF5FEAA2
:10023000500C50F1000041EB045141EA050130BD82
:100240005FEA4C0C404141EB0101013C28BFB1F594
:10025000801FE9D291F0000F04BF01460020B1FADF
:1002600081F308BF2033A3F10B03B3F120020CDAB2
:100270000C3208DD02F1140CC2F10C0201FA0CF090
:1002800021FA02F10CE002F11402D8BFC2F1200CF5
:1002900001FA02F120FA0CFCDCBF41EA0C019040AB
:1002A000E41AA2BF01EB0451294330BD6FEA0404F4
:1002B0001F3C1CDA0C340EDC04F11404C4F12002DF
:1002C00020FA04F001FA02F340EA030021FA04F3F1
:1002D00045EA030130BDC4F10C04C4F1200220FA48
:1002E00002F001FA04F340EA0300294630BD21FA86
:1002F00004F0294630BD94F0000F83F4801306BF4C
:1003000081F480110134013D4EE77FEA645C18BF3F
:100310007FEA655C29D094EA050F08BF90EA020FD6
:1003200005D054EA000C04BF1946104630BD91EACE
:10033000030F1EBF0021002030BD5FEA545C05D1D1
:100340004000494128BF41F0004130BD14F5800410
:100350003CBF01F5801130BD01F0004545F0FE4184
:1003600041F470014FF0000030BD7FEA645C1ABFB9
:10037000194610467FEA655C1CBF0B46024650EAF0
:10038000013406BF52EA033591EA030F41F400211C
:1003900030BD00BF90F0000F04BF0021704730B5A2
:1003A0004FF4806404F132044FF000054FF0000177
:1003B00050E700BF90F0000F04BF0021704730B538
:1003C0004FF4806404F1320410F0004548BF40420D
:1003D0004FF000013EE700BF42004FEAE2014FEA62
:1003E00031014FEA02701FBF12F07F4393F07F4F3D
:1003F00081F06051704732F07F4208BF704793F040
:100400007F4F04BF41F40021704730B54FF4607452
:1004100001F0004521F000411CE700BF50EA010255
:1004200008BF704730B54FF000050AE050EA0102FE
:1004300008BF704730B511F0004502D5404261EB6E
:1004400041014FF4806404F132045FEA915C3FF4AF
:10045000D8AE4FF003025FEADC0C18BF03325FEA4C
:10046000DC0C18BF033202EBDC02C2F1200300FAFD
:1004700003FC20FA02F001FA03FE40EA0E0021FA22
:1004800002F11444BDE600BF70B54FF0FF0C4CF410
:10049000E06C1CEA11541DBF1CEA135594EA0C0FC2
:1004A00095EA0C0F00F0DEF82C4481EA030621EAFD
:1004B0004C5123EA4C5350EA013518BF52EA033538
:1004C00041F4801143F4801338D0A0FB02CE4FF0EA
:1004D0000005E1FB02E506F00042E0FB03E54FF01A
:1004E0000006E1FB03569CF0000F18BF4EF0010E12
:1004F000A4F1FF04B6F5007F64F5407404D25FEA0E
:100500004E0E6D4146EB060642EAC62141EA5551C0
:100510004FEAC52040EA5E504FEACE2EB4F1FD0C02
:1005200088BFBCF5E06F1ED8BEF1004F08BF5FEA80
:10053000500E50F1000041EB045170BD06F0004632
:1005400046EA010140EA020081EA0301B4EB5C04DF
:10055000C2BFD4EB0C0541EA045170BD41F48011D7
:100560004FF0000E013C00F3AB8014F1360FDEBFFC
:10057000002001F0004170BDC4F10004203C35DAD8
:100580000C341BDC04F11404C4F1200500FA05F35B
:1005900020FA04F001FA05F240EA020001F00042FC
:1005A00021F0004110EBD37021FA04F642EB060172
:1005B0005EEA430E08BF20EAD37070BDC4F10C049C
:1005C000C4F1200500FA04F320FA05F001FA04F260
:1005D00040EA020001F0004110EBD37041F100014C
:1005E0005EEA430E08BF20EAD37070BDC4F1200557
:1005F00000FA05F24EEA020E20FA04F301FA05F2BF
:1006000043EA020321FA04F001F0004121FA04F266
:1006100020EA020000EBD3705EEA430E08BF20EA36
:10062000D37070BD94F0000F0FD101F00046400070
:1006300041EB010111F4801F08BF013CF7D041EAF2
:10064000060195F0000F18BF704703F000465200F6
:1006500043EB030313F4801F08BF013DF7D043EAC7
:100660000603704794EA0C0F0CEA135518BF95EA7D
:100670000C0F0CD050EA410618BF52EA4306D1D104
:1006800081EA030101F000414FF0000070BD50EA23
:10069000410606BF1046194652EA430619D094EAAD
:1006A0000C0F02D150EA013613D195EA0C0F05D197
:1006B00052EA03361CBF104619460AD181EA0301EB
:1006C00001F0004141F0FE4141F470014FF00000A3
:1006D00070BD41F0FE4141F4780170BD70B54FF03E
:1006E000FF0C4CF4E06C1CEA11541DBF1CEA1355BE
:1006F00094EA0C0F95EA0C0F00F0A7F8A4EB0504A0
:1007000081EA030E52EA03354FEA013100F0888096
:100710004FEA03334FF0805545EA131343EA12635F
:100720004FEA022245EA111545EA10654FEA002614
:100730000EF000419D4208BF964244F1FD0404F5CD
:10074000407402D25B084FEA3202B61A65EB030529
:100750005B084FEA32024FF480104FF4002CB6EBE6
:10076000020E75EB030E22BFB61A754640EA0C0066
:100770005B084FEA3202B6EB020E75EB030E22BFA6
:10078000B61A754640EA5C005B084FEA3202B6EBE7
:10079000020E75EB030E22BFB61A754640EA9C00A6
:1007A0005B084FEA3202B6EB020E75EB030E22BF76
:1007B000B61A754640EADC0055EA060E18D04FEA34
:1007C000051545EA16754FEA06164FEAC30343EAD4
:1007D00052734FEAC2025FEA1C1CC0D111F4801FA1
:1007E0000BD141EA00014FF000004FF0004CB6E79A
:1007F00011F4801F04BF01430020B4F1FD0C88BF39
:10080000BCF5E06F3FF6AFAEB5EB030C04BFB6EB43
:10081000020C5FEA500C50F1000041EB045170BD36
:100820000EF0004E4EEA113114EB5C04C2BFD4EB63
:100830000C0541EA045170BD41F480114FF0000EE7
:10084000013C90E645EA060E8DE60CEA135594EA63
:100850000C0F08BF95EA0C0F3FF43BAF94EA0C0F66
:100860000AD150EA01347FF434AF95EA0C0F7FF4DB
:1008700025AF104619462CE795EA0C0F06D152EA2F
:1008800003353FF4FDAE1046194622E750EA410613
:1008900018BF52EA43067FF4C5AE50EA41047FF424
:1008A0000DAF52EA43057FF4EBAE12E74FEA410287
:1008B00012F5001215D211D56FF47873B3EB6252B2
:1008C00012D94FEAC12343F0004343EA505311F0D9
:1008D000004F23FA02F018BF404270474FF000006B
:1008E000704750EA013005D111F0004008BF6FF0A9
:1008F000004070474FF00000704700BF4FF0FF3CD2
:1009000006E000BF4FF0010C02E000BF4FF0010C09
:100910004DF804CD4FEA410C7FEA6C5C4FEA430C82
:1009200018BF7FEA6C5C1BD001B050EA410C0CBFD1
:1009300052EA430C91EA030F02BF90EA020F002033
:10094000704710F1000F91EA030F58BF994208BF9A
:1009500090422CBFD8176FEAE37040F00100704757
:100960004FEA410C7FEA6C5C02D150EA013C07D1AE
:100970004FEA430C7FEA6C5CD6D152EA033CD3D0F9
:100980005DF8040B704700BF8446104662468C46F3
:100990001946634600E000BF01B5FFF7B7FF002826
:1009A00048BF10F1000F01BD4DF808EDFFF7F4FF4F
:1009B0000CBF012000205DF808FB00BF4DF808EDDA
:1009C000FFF7EAFF34BF012000205DF808FB00BFFD
:1009D0004DF808EDFFF7E0FF94BF012000205DF81F
:1009E00008FB00BF4DF808EDFFF7CEFF94BF0120D4
:1009F00000205DF808FB00BF4DF808EDFFF7C4FFCD
:100A000034BF012000205DF808FB00BF4FEA410C15
:100A10007FEA6C5C02D150EA013C0AD14FEA430CF8
:100A20007FEA6C5C02D152EA033C02D14FF0000035
:100A300070474FF0010070470348044B834202D0D7
:100A4000034B03B1184770473C0100203C010020D4
:100A5000000000000548064B1B1AD90F01EBA3014B
:100A6000491002D0034B03B1184770473C010020E6
:100A70003C0100200000000010B5064C237843B96B
:100A8000FFF7DAFF044B13B10448AFF300800123F2
:100A9000237010BD3C01002000000000F424000879
:100AA00008B5054B1BB105490548AFF30080BDE80B
:100AB0000840FFF7CFBF00BF00000000400100204A
:100AC000F42400082DE9F84304460D4616461F4657
:100AD000DFF88480D8F80000FFF75CFC02460B4684
:100AE00020462946FFF718FB04460D46D8F80400B7
:100AF000FFF750FC02460B4630463946FFF70CFB29
:100B000006460F4622462B4620462946FFF7BCFCE8
:100B10008046894632463B4630463946FFF7B4FCAC
:100B200002460B4640464946FFF7F8FA01F030FA14
:100B300032463B4620462946FFF7D0FD01F050FAE9
:100B400000F0FEF80022054BFFF7E8FA012200F062
:100B5000C5F8BDE8F88300BF0000002000805640C3
:100B60002DE9F04188B0002404940594069407947C
:100B7000264B9A6942F010029A619A6902F01002BB
:100B80000092009A9A6942F020029A619A6902F0F2
:100B900020020192019A9A6942F008029A619A69C8
:100BA00002F008020292029A9A6942F004029A61E3
:100BB0009B6903F004030393039BDFF85480012235
:100BC0004FF40051404600F09DFB124D22464FF479
:100BD0000041284600F096FB4FF400530493012790
:100BE000059706940226079604A9404600F07CFA71
:100BF0004FF40043049305970694079604A92846EA
:100C000000F072FA08B0BDE8F08100BF00100240A9
:100C100000100140000C014072B6FEE700B591B033
:100C20002822002106A801F0CDF8002301930293A9
:100C3000039304930593012206924FF480330793A4
:100C40000A9202220D920E934FF4E0130F9306A81E
:100C500000F074FB80B90F2301930221029100235D
:100C600003934FF480620492059301A800F098FD6D
:100C700020B911B05DF804FBFFF7CEFFFFF7CCFF02
:100C800008B500F0A3F9FFF7C9FFFFF769FF00F00F
:100C9000D7F800F00DF804A3D3E9002300200021C9
:100CA000FFF710FFF7E700BF0000000000C053404F
:100CB00010B5094C0021204600F0B6FF0421204663
:100CC00000F0B2FF0821204600F0AEFF0C212046C4
:100CD00000F0AAFF10BD00BF5801002010B5144657
:100CE0000022124BFFF7FAFC0022114BFFF7CCFB5E
:100CF0000022104BFFF712FAFFF7D8FD621E032AFD
:100D000006D8DFE802F002060A0E0B4B1B68586398
:100D100010BD094B1B689863FAE7074B1B68D86343
:100D2000F6E7054B1B681864F2E700BF00806640D9
:100D30000000444000002440580100200000000052
:100D400008B505A3D3E90023FFF7C8FC0022044B34
:100D5000FFF79AFB08BD00BFA7E8482EFF21094016
:100D60000080664082B00E4B9A6942F001029A619F
:100D70009A6902F001020092009ADA6942F0805208
:100D8000DA61DB6903F080530193019B054A5368E4
:100D900023F0E06343F00073536002B0704700BF7C
:100DA0000010024000000140FEE7FEE7FEE7FEE71C
:100DB000FEE770477047704708B500F019F908BDA5
:100DC000704700000268094B9A4200D0704782B019
:100DD00003F564439A6942F400629A619B6903F4E3
:100DE00000630193019B02B0704700BF002C0140DB
:100DF00000B587B000230293039304930593026820
:100E00000D4B9A4202D007B05DF804FB03F5644332
:100E10009A6942F004029A619B6903F0040301930A
:100E2000019B4FF47063029302230393059302A97D
:100E3000024800F059F9E6E7002C014000080140A3
:100E400010B592B000241094119409940A940B9454
:100E50000C940D940E940F942022214601A800F0CA
:100E6000B1FF3248324B036040F60F634360846049
:100E700040F28F13C360046144618023836100F0FA
:100E8000FBFD00283CD100231093119310A92748A3
:100E900000F038FF002836D16023099300220A921F
:100EA0000B920C920D920E920F9209A91F4800F01E
:100EB0003DFE58BB042209A91C4800F037FE40BB88
:100EC000082209A9194800F031FE28BB0C2209A903
:100ED000164800F02BFE10BB0023019302930393EE
:100EE000049305934FF400520692089301A90F480A
:100EF00000F03EFFB0B90D48FFF77AFF12B010BD09
:100F0000FFF78AFEBFE7FFF787FEC5E7FFF784FE1E
:100F1000D0E7FFF781FED3E7FFF77EFED6E7FFF7C6
:100F20007BFED9E7FFF778FEE5E700BF5801002018
:100F3000002C0140FFF744FF0B480C490C4A0023EA
:100F400002E0D458C4500433C4188C42F9D3094A7F
:100F5000094C002301E013600432A242FBD300F0ED
:100F600087FFFFF78DFE7047000000203C01002046
:100F7000942500083C01002074040020FEE70000D6
:100F800010B504460E4B1A784FF47A73B3FBF2F3A4
:100F90000C4A1068B0FBF3F000F092F868B90F2C1F
:100FA00001D901200AE0002221464FF0FF3000F075
:100FB00077F8054B1C60002000E0012010BD00BF49
:100FC0000C000020080000201000002008B5074A8F
:100FD000136843F010031360032000F04FF80F2054
:100FE000FFF7CEFFFFF7BEFE002008BD0020024045
:100FF000034A1168034B1B780B441360704700BF12
:10100000A00100200C000020014B1868704700BFB1
:10101000A0010020002808DB0901C9B200F16040EE
:1010200000F5614080F80013704700F00F000901DF
:10103000C9B2014B1954704714ED00E000B500F03F
:101040000700C0F1070CBCF1040F28BF4FF0040CDF
:10105000031D062B0FD9C31E4FF0FF3E0EFA0CF0F6
:1010600021EA000199400EFA03FE22EA0E0241EA4B
:1010700002005DF804FB0023EEE70000074AD36896
:1010800023F4E0631B041B0C000200F4E060034344
:1010900043F0BF6343F40033D360704700ED00E0DA
:1010A00010B50446054BD868C0F30220FFF7C6FF11
:1010B00001462046FFF7AEFF10BD00BF00ED00E087
:1010C0000138B0F1807F0BD24FF0E0235861054A20
:1010D000F02182F823100020986107221A617047DE
:1010E0000120704700ED00E070B582B00024A446F6
:1010F000A1E07E4DAB4214D00CD8A5F58015AB42D3
:101100000FD005F57025AB420BD0A5F58015AB428D
:1011100010D106E0764DAB4203D005F58035AB42E9
:1011200008D18B68002B50D0012B49D04261082494
:1011300000E0CC68BEF1FF0F49D806464FEA8C02AA
:1011400033680F25954023EA050304FA02F213439E
:1011500033604B6813F0805F6BD0664B9A6942F046
:1011600001029A619B6903F001030193019B4FEA1D
:101170009C02951C604B53F825600CF00305AD00F4
:101180000F23AB4026EA03065C4B984226D003F5BA
:101190008063984200F08C8003F58063984200F0F1
:1011A000898003F58063984216D0042317E0CC6849
:1011B0000434BFE7CC680834BCE7CC680C34B9E72A
:1011C00002610824B6E70024B4E70424B2E7061D50
:1011D000ACF108029200B3E7032300E00023AB4028
:1011E00033430232444D45F822304B6813F4801FDC
:1011F00062D0434A936843EA0E0393604B6813F44A
:10120000001F5FD03E4AD36843EA0E03D3604B68A9
:1012100013F4003F5CD03A4A536843EA0E0353602C
:101220004B6813F4803F59D0354A136843EA0E03E4
:1012300013600CF1010C0B6833FA0CF254D001224C
:1012400002FA0CF203EA020E32EA0303F1D14B6810
:10125000122B3FF64EAF122B3FF66CAF01A555F89F
:1012600023F000BF2311000833110008B511000856
:10127000C7110008351100083511000835110008A4
:101280003511000835110008351100083511000826
:101290003511000835110008351100083511000816
:1012A0003511000835110008AF110008BB11000806
:1012B000012394E7022392E7114A936823EA0E037D
:1012C00093609BE70E4AD36823EA0E03D3609EE740
:1012D0000B4A536823EA0E035360A1E7084A1368D8
:1012E00023EA0E031360A4E702B070BD00002210D1
:1012F00000003110001002400000014000080140D1
:10130000000401400AB1016170470904016170479E
:1013100082B0084B1B68084AA2FB03235B0A00FB50
:1013200003F3019300BF019B5A1E0192002BF9D1D8
:1013300002B0704708000020D34D6210002800F072
:10134000F18170B582B00446036813F0010F2CD010
:10135000994B5B6803F00C03042B1DD0964B5B6824
:1013600003F00C03082B12D06368B3F5803F41D023
:10137000002B55D103F1804303F504331A6822F49E
:1013800080321A601A6822F480221A6037E08A4B91
:101390005B6813F4803FE7D0874B1B6813F4003F72
:1013A00003D06368002B00F0BF81236813F0020FA5
:1013B00075D0814B5B6813F00C0F5FD07E4B5B6880
:1013C00003F00C03082B54D02369002B00F08A8013
:1013D0007A4B01221A60FFF717FE0546764B1B6811
:1013E00013F0020F75D1FFF70FFE401B0228F5D94D
:1013F00003209EE1704A136843F4803313606368EE
:1014000043B3FFF701FE05466B4B1B6813F4003F27
:10141000CBD1FFF7F9FD401B6428F5D9032088E103
:10142000B3F5A02F09D0644B1A6822F480321A60F9
:101430001A6822F480221A60E1E703F18043A3F5E1
:101440003C331A6842F480221A601A6842F48032EF
:101450001A60D4E7FFF7D8FD0546574B1B6813F415
:10146000003FA2D0FFF7D0FD401B6428F5D9032030
:101470005FE1514B5B6813F4803FA5D14E4B1B6875
:1014800013F0020F03D02369012B40F04F814A4A29
:10149000136823F0F803616943EAC103136023680A
:1014A00013F0080F33D0A369002B5CD0434B01220B
:1014B000C3F88024FFF7A8FD05463F4B5B6A13F095
:1014C000020F21D1FFF7A0FD401B0228F5D9032010
:1014D0002FE1394A136823F0F803616943EAC10335
:1014E0001360DCE7354B00221A60FFF78DFD0546DF
:1014F000314B1B6813F0020FD1D0FFF785FD401B65
:101500000228F5D9032014E10120FFF701FF236829
:1015100013F0040F00F09680274BDB6913F0805F17
:1015200034D1254BDA6942F08052DA61DB6903F08D
:1015300080530193019B0125214B1B6813F4807F8D
:1015400026D0E368012B3DD0002B53D103F180431B
:1015500003F504331A6A22F001021A621A6A22F0B1
:1015600004021A6233E0154B0022C3F88024FFF70F
:101570004BFD0546104B5B6A13F0020FC7D0FFF717
:1015800043FD401B0228F5D90320D2E00025D3E714
:101590000B4A136843F480731360FFF735FD06466A
:1015A000074B1B6813F4807FCBD1FFF72DFD801B09
:1015B0006428F5D90320BCE000100240000042423C
:1015C000007000405F4A136A43F001031362E3684E
:1015D00033B3FFF719FD06465A4B1B6A13F0020F8F
:1015E0002FD1FFF711FD801B41F288339842F3D9C8
:1015F00003209EE0052B09D0524B1A6A22F001020B
:101600001A621A6A22F004021A62E0E74D4B1A6A63
:1016100042F004021A621A6A42F001021A62D6E724
:10162000FFF7F2FC0646474B1B6A13F0020F08D087
:10163000FFF7EAFC801B41F288339842F3D903207C
:1016400077E0E5B9E369002B72D03E4A526802F0B8
:101650000C02082A56D0022B17D03B4B00221A66E8
:10166000FFF7D2FC0446374B1B6813F0007F47D0CE
:10167000FFF7CAFC001B0228F5D9032059E0314AC4
:10168000D36923F08053D361DCE72F4B00221A6625
:10169000FFF7BAFC05462B4B1B6813F0007F06D002
:1016A000FFF7B2FC401B0228F5D9032041E0236A72
:1016B000B3F5803F1AD023494B6823F47413226A90
:1016C000606A024313434B601F4B01221A66FFF707
:1016D0009BFC04461B4B1B6813F0007F0ED1FFF7E9
:1016E00093FC001B0228F5D9032022E0154A536819
:1016F00023F40033A1680B435360DCE7002018E0BB
:10170000002016E0012B16D00E4B5B6803F48031ED
:10171000226A914211D103F47013626A93420ED18E
:10172000002006E001207047012002E0012000E0D7
:10173000002002B070BD0120FBE70120F9E7012085
:10174000F7E700BF00100240000042420F4B5B6809
:1017500003F00C02082A01D00D487047C3F38342FE
:101760000C49885C13F4803F0BD0084B5B68C3F3D3
:101770004043094AD35C064A02FB00F0B0FBF3F099
:101780007047064B03FB00F0704700BF001002409B
:1017900000127A00242500082025000800093D00D9
:1017A000002800F0A08070B50D460446524B1B681F
:1017B00003F007038B420BD24F4A136823F0070351
:1017C0000B431360136803F007038B4240F08D80D6
:1017D000236813F0020F17D013F0040F04D0474A08
:1017E000536843F4E0635360236813F0080F04D098
:1017F000424A536843F460535360404A536823F0AD
:10180000F003A1680B435360236813F0010F31D03C
:101810006368012B20D0022B25D0384A126812F0C1
:10182000020F64D035494A6822F0030213434B602B
:10183000FFF7EAFB0646314B5B6803F00C03626876
:10184000B3EB820F16D0FFF7DFFB801B41F288332A
:101850009842F0D9032045E0284A126812F4003F6C
:10186000E0D101203EE0254A126812F0007FD9D174
:10187000012037E0204B1B6803F00703AB420AD975
:101880001D4A136823F007032B431360136803F00A
:101890000703AB422DD1236813F0040F06D0174A7B
:1018A000536823F4E063E1680B435360236813F04B
:1018B000080F07D0114A536823F46053216943EAA3
:1018C000C1035360FFF742FF0C4B5B68C3F3031384
:1018D0000B4AD35CD8400B4B18600B4B1868FFF7D2
:1018E0004FFB002070BD012070470120FAE7012066
:1018F000F8E70120F6E700BF002002400010024098
:1019000010250008080000201000002030B4026AF2
:10191000036A23F0010303624568836923F07303BC
:101920000C681C4322F002028B6813430B4A90425E
:1019300006D0456084614A684263036230BC7047E8
:1019400023F00803CA681A4322F0040325F4407503
:101950004A692A438D691543EBE700BF002C01401B
:1019600030B4036A026A22F4807202624468C26977
:1019700022F073020D68154323F400738A6843EA6A
:1019800002230D4A904206D04460C5614A68C26392
:10199000036230BC704723F40063CA6843EA022341
:1019A00023F4806324F440544A6944EA02148A69A7
:1019B00044EA0214E8E700BF002C014030B4036A97
:1019C000026A22F4805202624468C26922F4E6424A
:1019D0000D6842EA052223F400538D6843EA05337B
:1019E000074DA84206D04460C2614A68026403629F
:1019F00030BC704724F480444D6944EA8514F2E712
:101A0000002C014003681B4A90420AD0B0F1804F7D
:101A100007D0A2F59432904203D002F58062904242
:101A200003D123F070034A681343124A90420AD04C
:101A3000B0F1804F07D0A2F59432904203D002F566
:101A40008062904203D123F44073CA68134323F0A9
:101A500080034A69134303608B68C3620B68836227
:101A6000044B984202D00123436170470B69036322
:101A7000F9E700BF002C014040B310B5044690F8D0
:101A80003D30F3B1022384F83D30214651F8040B78
:101A9000FFF7B8FF012384F8463084F83E3084F81D
:101AA0003F3084F8403084F8413084F8423084F884
:101AB000433084F8443084F8453084F83D300020C9
:101AC00010BD80F83C30FFF77DF9DBE7012070475F
:101AD00030B4036A026A22F010020262446882692A
:101AE00022F4E6420D6842EA052223F020038D68C5
:101AF00043EA05130C4DA84206D0446082614A684F
:101B00008263036230BC704723F08003CD6843EAF0
:101B1000051323F0400324F440644D6944EA85042E
:101B20008D6944EA8504E8E7002C014038B590F857
:101B30003C30012B66D004460D46012380F83C3032
:101B40000C2A5AD8DFE802F0075959591B5959593C
:101B50003059595944000068FFF7D8FE226893694C
:101B600043F0080393612268936923F004039361AF
:101B70002268936929690B43936100203EE0006865
:101B8000FFF7A6FF2268936943F40063936122681C
:101B9000936923F48063936122689369296943EA16
:101BA00001239361002029E00068FFF7D9FE226835
:101BB000D36943F00803D3612268D36923F0040397
:101BC000D3612268D36929690B43D361002015E0F2
:101BD0000068FFF7F3FE2268D36943F40063D36122
:101BE0002268D36923F48063D3612268D3692969A9
:101BF00043EA0123D361002000E00120002384F8A0
:101C00003C3038BD0220FCE701F01F014FF0010C11
:101C10000CFA01FC036A23EA0C030362036A8A409C
:101C2000134303627047000010B50446084651BBD9
:101C300094F83E30DBB2013B18BF0123002B5BD18F
:101C4000002839D1022384F83E3001220146206861
:101C5000FFF7DAFF23682A4A93423DD02368284AD7
:101C600093423ED0B3F1804F3BD0A2F594329342E1
:101C700037D002F58062934233D01A6842F00102F5
:101C80001A60002039E0042908D008290DD094F802
:101C90004130DBB2013B18BF0123CFE794F83F305E
:101CA000DBB2013B18BF0123C8E794F84030DBB238
:101CB000013B18BF0123C1E7042805D0082807D03D
:101CC000022384F84130C0E7022384F83F30BCE7A8
:101CD000022384F84030B8E75A6C42F400425A6458
:101CE000BCE79A6802F00702062A07D01A6842F099
:101CF00001021A60002000E0012010BD0020FCE776
:101D0000002C014090F83C20012A2CD010B403464E
:101D1000012280F83C20022280F83D2002685068B1
:101D2000946820F0700C086840EA0C0050601A6853
:101D30000E4882420AD0B2F1804F07D0A0F594300D
:101D4000824203D000F58060824204D124F08004F6
:101D5000496821439160012283F83D20002083F8E7
:101D60003C0010BC70470220704700BF002C0140AF
:101D7000024690F83C30012B21D0012380F83C3002
:101D8000CB6823F440738868034323F48063486876
:101D9000034323F400630868034323F48053086972
:101DA000034323F400534869034323F48043C96980
:101DB0000B4311684B64002082F83C0070470220FE
:101DC0007047000070B5860747D0541E002A3ED0E9
:101DD0000346CAB201E0013C39D303F8012B9D0749
:101DE000F9D1032C2CD9CDB205EB05250F2C1A46C1
:101DF00005EB054534D9A4F1100C2CF00F0603F1C6
:101E0000100EB6444FEA1C1CC2E90055C2E9025547
:101E100010327245F8D10CF1010214F00C0F03EBF3
:101E2000021204F00F0C13D0ACF1040323F00303EF
:101E30000433134442F8045B9342FBD10CF00304D7
:101E40002CB1C9B21C4403F8011BA342FBD170BDE5
:101E500064461346002CF4D1F9E703461446C0E764
:101E6000A446E1E7014B1868704700BF140000204A
:101E700070B50F4B0F4DAB42A3EB050607D0002406
:101E8000B61055F8043B01349847A642F9D800F043
:101E900031FB094D094B5E1BAB424FEAA60606D04B
:101EA000002455F8043B01349847A642F9D870BD88
:101EB0008825000888250008882500089025000846
:101EC000704700BF704700BF024B13B1024800F0DB
:101ED00005B8704700000000E91E00080023014615
:101EE0001A46184600F014B838B5074D074C2C1B9D
:101EF000A41005D0013C55F8043D9847002CF9D1B9
:101F0000BDE8384000F0FCBA942500089025000890
:101F10002DE9F8431B4D0646286898460F46914622
:101F2000FFF7CEFF184B1C681CB3286865681F2D8F
:101F300022DC4EB96B1C0235636044F82570FFF754
:101F4000C1FF0020BDE8F883012304EB8501C1F83F
:101F50008890D4F88821AB401A43022EC4F8882117
:101F6000C1F80881E6D1D4F88C211A43C4F88C2139
:101F7000E0E7064C1C60D8E7FFF7A4FF4FF0FF3006
:101F8000E0E700BF38010020E0020020E40200206A
:101F9000F8B504460D4600F0BFF9224606460F4646
:101FA0002B4620462946FEF731FD30B9204629460A
:101FB00000220023FEF702FD10B930463946F8BD75
:101FC000FFF750FF0022002321210160104619462F
:101FD000FEF784FB06460F4630463946F8BD00BF83
:101FE0002DE9F84FC04B21F000469E4204460D46B5
:101FF0008A4616D9BD4B9E420BD808D0BAF1000FC5
:1020000040F3C2809CA1D1E90001BDE8F88F00280F
:10201000F4D022462B4620462946FEF77FF8BDE83D
:10202000F88FB34B9E4200F2B480A3F1DE739E4260
:1020300040F29B804FF0FF3B22462B46204629462C
:10204000FEF722FA02460B4680468946FEF71CFA46
:102050008BA3D3E9002306460F46FEF715FA8AA3A1
:10206000D3E90023FEF75AF832463B46FEF70CFA56
:1020700087A3D3E90023FEF751F832463B46FEF72B
:1020800003FA85A3D3E90023FEF748F832463B461E
:10209000FEF7FAF982A3D3E90023FEF73FF83246B0
:1020A0003B46FEF7F1F980A3D3E90023FEF736F8AB
:1020B00042464B46FEF7E8F97DA3D3E9002380466C
:1020C000894630463946FEF7DFF97BA3D3E9002382
:1020D000FEF722F832463B46FEF7D6F978A3D3E95D
:1020E0000023FEF719F832463B46FEF7CDF976A3FA
:1020F000D3E90023FEF710F832463B46FEF7C4F959
:1021000073A3D3E90023FEF707F832463B46FEF7F8
:10211000BBF902460B4640464946FDF7FFFF224603
:102120002B46FEF7B1F9BBF1FF3F02460B4659D0F3
:10213000704B714E03EBCB03D3E90023FDF7ECFFAB
:1021400022462B46FDF7E8FF06EBCB0602460B4680
:10215000D6E90001FDF7E0FFBAF1000FBFF65FAF6F
:1021600001F100431946BDE8F88F5BA3D3E90023D2
:10217000FDF7D4FF0022614BFEF73EFC00283FF440
:1021800059AF204629464AE755A1D1E90001BDE8EB
:10219000F88F00F0BDF85A4B04469E420D4627D8F2
:1021A000A3F550239E424ED802460B46FDF7B6FFDC
:1021B0000022524BFDF7B0FF02460B46204629464F
:1021C00014461D4600224FF08043FDF7A7FF02464C
:1021D0000B4620462946FEF781FA4FF0000B0446D5
:1021E0000D4629E720462946FDF796FFBDE8F88F02
:1021F000444B9E421CD20022434BFDF78DFF02460A
:102200000B462046294614461D4600223E4BFEF74B
:102210003BF90022394BFDF781FF02460B46204671
:102220002946FEF75BFA4FF0020B04460D4603E722
:1022300002460B4600203549FEF750FA4FF0030BDB
:1022400004460D46F8E600222C4BFDF765FF0246DA
:102250000B462046294614461D460022274BFDF713
:102260005DFF02460B4620462946FEF737FA4FF03F
:10227000010B04460D46DFE6182D4454FB21F93FBF
:1022800011DA22E33AAD903FEB0D76244B7BA93F68
:10229000513DD0A0660DB13F6E204CC5CD45B73F36
:1022A000FF8300922449C23F0D5555555555D53FE2
:1022B0002F6C6A2C44B4A2BF9AFDDE522DDEAD3FD6
:1022C0006D9A74AFF2B0B33F711623FEC671BC3F76
:1022D000C4EB98999999C93F9C7500883CE4377E76
:1022E000182D4454FB21F9BFFFFF0F440000F07F7D
:1022F000FFFFDB3F38250008582500080000F03FAD
:10230000FFFFF23F008003400000F83F0000F0BFF5
:1023100021F00043194670472DE9F84F724D0646EB
:102320008D430F4600F0A48000290C460246034668
:1023300056DD081500F0C780C4F31302C107A0F2F0
:10234000FF3742F4801203D4D90F01EB42025B0045
:10235000002616244FF40011B446520002EBD3724B
:102360007F105B000CEB010090424FEAD3754FEAFF
:10237000430303DC00EB010C121A0E44013C05EB95
:1023800042024FEA5101EDD120254FF00040A04616
:102390000AE03CD0510001EBD371013D0A464FEAFF
:1023A00043034FEA50003ED0944508EB000EF0DAAC
:1023B000BEF1000F0EEB00080CDBE146A2EB0C01B6
:1023C000CC469E4588BF01F1FF314900A3EB0E03C7
:1023D0000444E0E7B8F1000FEFDB0CF10109EDE791
:1023E00021F0004505433DD0002964D1DA0A153CAF
:1023F0005B05002AFAD0D60220461946144663D55A
:1024000020254FF0FF32E940801A0C4394E79E45A7
:1024100002D94FEA4C01BEE7BEF1000F0EEB0008F7
:1024200022DB0021D2E7194312D0DFF8C0A0DFF889
:10243000C0B0DAE90001DBE90023FDF76DFEDAE95F
:10244000008902460B4640464946FEF7C1FAC8B924
:102450006508731003F17F5303F5001303EB075175
:1024600045EAC670BDE8F88FB8F1000FB5DAD8E7D5
:1024700002460B46FEF708F832463B46FDF74EFE95
:10248000BDE8F88FB4F1FF3FDAE90001DBE9002392
:1024900026D0DAE90089FDF741FE02460B464046A8
:1024A0004946FEF78BFAE8B1A31C04F1020508BF08
:1024B00001366D08CDE70B46FDF72EFE02460B46B2
:1024C000FEF70CF9CEE7314600236400E5021A4618
:1024D00003F10103F9D5C3F1200501FA03F392E7F3
:1024E0000136B6E70134B3E70000F07F802500082D
:1024F00078250008F8B500BFF8BC08BC9E467047B8
:0C250000F8B500BFF8BC08BC9E46704750
:102510000000000000000000010203040607080993
:102520000102000002030405060708090A0B0C0D4E
:102530000E0F101000000000E2652F227F2B7A3C66
:10254000075C143326A6813CBDCBF07A8807703C2B
:10255000075C143326A6913C4FBB610567ACDD3F99
:10256000182D4454FB21E93F9BF681D20B73EF3FBA
:10257000182D4454FB21F93F59F3F8C21F6EA501F1
:08258000000000000000F03F24
:08258800C91E0008A10A0008A9
:04259000790A0008BC
:1025940043000000000000000024F40001000000DB
:1025A400100000001800002000000000A40100201A
:1025B4000C02002074020020000000000000000053
:1025C4000000000000000000000000000000000007
:1025D40000000000000000000000000000000000F7
:1025E40000000000000000000000000000000000E7
:1025F40000000000000000000000000000000000D7
:1026040000000000000000000000000000000000C6
:1026140000000000000000000000000000000000B6
:1026240000000000000000000000000000000000A6
:102634000000000000000000000000000000000096
:1026440001000000000000000E33CDAB34126DE633
:10265400ECDE05000B00000000000000000000009C
:102664000000000000000000000000000000000066
:102674000000000000000000000000000000000056
:102684000000000000000000000000000000000046
:102694000000000000000000000000000000000036
:1026A4000000000000000000000000000000000026
:1026B4000000000000000000000000000000000016
:0C26C4000000000000000000DC0200200C
:0400000508000F35AB
:00000001FF
